:020000021000EC
:1000000098D60120D152010065920300BD52010033
:10001000BD520100BD520100BD520100BD520100A0
:10002000000000000000000000000000BD540100BE
:10003000BD5201000000000075540100BD520100D6
:100040007156010071560100715601007156010090
:100050007156010071560100715601007156010080
:100060007156010071560100715601007156010070
:100070007156010071560100715601007156010060
:100080007156010071560100715601007156010050
:100090007156010071560100715601007156010040
:1000A0007156010071560100715601007156010030
:1000B0007156010071560100715601007156010020
:1000C0007156010071560100715601007156010010
:1000D0007156010071560100715601007156010000
:1000E00071560100715601007156010071560100F0
:1000F00071560100715601007156010071560100E0
:1001000071560100715601007156010071560100CF
:1001100071560100715601007156010071560100BF
:1001200071560100715601007156010071560100AF
:10013000715601007156010071560100715601009F
:0401400071560100F3
:100148007BB972B90029BEBF00204FF0004106E01C
:1001580008BF00281CBF6FF000414FF0FF3000F0CF
:1001680057B8ADF1080C6DE904CE002909DB002B66
:100178001ADB00F069F8DDF804E0DDE9022304B0D9
:100188007047404261EB4101002B1BDB00F05CF83B
:10019800DDF804E0DDE9022304B0404261EB4101EF
:1001A800524263EB43037047524263EB430300F050
:1001B8004BF8DDF804E0DDE9022304B0404261EBCE
:1001C80041017047524263EB430300F03DF8DDF80C
:1001D80004E0DDE9022304B0524263EB43037047B5
:1001E80053B94AB9002908BF00281CBF4FF0FF3196
:1001F8004FF0FF3000F00CB8ADF1080C6DE904CEFB
:1002080000F022F8DDF804E0DDE9022304B07047CD
:10021800704700BF10F8012B11F8013B012A28BFD5
:100228009A42F7D0D01A7047034611F8012B03F809
:10023800012B002AF9D17047034613F8012B002A35
:10024800FBD1181A013870472DE9F04786468C46CD
:100258000846089E154674461946002B40F0C18092
:100268008542B2FA82F245D94AB1C2F1200300FAB6
:1002780002FC954094402EFA03F343EA0C0C4FEA33
:10028800154EA8B2230CBCFBFEF80EFB18CC08FBDD
:1002980000F943EA0C43994528D9EB1808F1FF37D0
:1002A80004D2994502D9A8F102072B44A3EB09030C
:1002B800A4B2B3FBFEFC0EFB1C330CFB00F044EABB
:1002C8000344A04214D92C190CF1FF3304D2A042E4
:1002D80002D9ACF102032C44241A43EA07401EB1A8
:1002E800D440002334607360BDE8F0874746DDE7FB
:1002F8006346F1E792BB431B01214FEA154EAFB2AB
:10030800200CB3FBFEFC0EFB1C330CFB07F840EA89
:100318000343984561D9EB180CF1FF3004D2984596
:1003280002D9ACF102002B44A3EB0803A4B2B3FB3F
:10033800FEFC0EFB1C330CFB07F744EA0344A74200
:100348004DD92C190CF1FF3304D2A74202D9ACF1D4
:1003580002032C44E41B43EA0040C0E7C2F1200337
:100368009540944020FA03F12EFA03F34FEA154E14
:100378009040AFB20343B1FBFEFC0EFB1C10190CFE
:100388000CFB07F841EA0041884522D969180CF1AD
:10039800FF3004D2884502D9ACF102002944A1EB10
:1003A80008019BB2B1FBFEFC0EFB1C110CFB07F70E
:1003B80043EA01439F420ED9EB180CF1FF3104D2F6
:1003C8009F4202D9ACF102012B44DB1B41EA0041F8
:1003D80093E76046E3E76146F7E76046A4E76346CC
:1003E800B8E7834206D916B9002108467CE7C6E972
:1003F80000E0F9E7B3FA83F78FB9834201D3724576
:1004080008D8BEEB020460EB030301209C461EB92A
:10041800002169E73846FAE7C6E9004CF8E7C7F172
:10042800200CBB400EFA07F522FA0CF42EFA0CF158
:10043800BA401C4320FA0CF3B8404FEA1449014370
:100448001FFA84FEB3FBF9F809FB18300B0C08FB04
:100458000EFA43EA00439A4540D9E31808F1FF3001
:1004680004D29A4502D9A8F102002344A3EB0A0357
:1004780089B2B3FBF9F809FB183308FB0EFE41EA11
:1004880003418E452CD9611808F1FF3304D28E45FB
:1004980002D9A8F10203214443EA0040A1EB0E016E
:1004A800A0FB02984145CE46434602D306D14D45AE
:1004B80004D20138B9EB020E68EB0403002EA7D072
:1004C800B5EB0E0261EB030101FA0CFC22FA07F30B
:1004D800F9404CEA0303C6E9003199E74046C5E70D
:1004E8004346D9E7000000002DE9F04F8DB0099090
:1004F8000D4617463AF03AFA4B0143EAD0634401F5
:10050800241A63EB01039B0043EA9473A4002418A4
:1005180043EB0101C90041EA5471C4F3103444EAC1
:1005280041444FEAD139012D65D07D6829463C48C0
:10053800FFF770FE28B129463A48FFF76BFE0028FE
:1005480061D135A3D3E9002320464946FFF7F8FDDA
:1005580080460A9130A3D3E9002320464946FFF795
:10056800EFFD15461C46304A002328462146FFF772
:10057800E7FD06460F462C4A002328462146FFF78A
:10058800DFFD15461C464EF660220023284621460C
:10059800FFF7D6FD81460B914EF6602200232846D0
:1005A8002146FFF7CDFD15461C464FF47A7200230D
:1005B80028462146FFF7C4FD83468A464FF47A72DF
:1005C800002328462146FFF7BBFDCDE90623CDF8D9
:1005D80010B0CDF814A0CDF808900B9A03920096AD
:1005E800019742460A9B1149099827F023FD0020EC
:1005F8000DB0BDE8F08F22464B460D49099827F00B
:1006080019FD0020F4E72A460A49099827F030FD29
:100618006FF00400ECE700BF005C26050000000056
:10062800B8BB0400BCBB040080EE3600E0BB04008D
:10063800A4BB0400C8BB040038B5374839F002FE33
:10064800002860D04FF4D011344825F02DFB01224A
:100658000821314825F043FB314839F0F3FD0028E3
:1006680055D0304826F0AEF825F058FB43F23F3518
:10067800002229462DF0D8FE25F050FB0022FF214C
:100688002DF0D9FE284C204635F020FF274920467A
:1006980036F073F84FF000016FF304016FF34A115D
:1006A8006FF3CF21204636F062F82946204635F010
:1006B800D4FFFF21204635F0D6FF0A21204625F039
:1006C8001BFB0A21204636F06AF825F027FB1EF0AE
:1006D8007FFA0546002221462DF0B8FC1449284629
:1006E8001EF04CFF00231A46092128462CF093F9E6
:1006F8001AF002FE0A4825F0A6FA1AF0FDFD0A20B3
:1007080025F012FBF9E70B4826F05CF838BD0A48DB
:1007180026F058F8FAE700BFACB104000CB70400A3
:1007280010B20400E8B60400301A0120843605002F
:10073800FCB60400A8B60400CCB604002DE9F041CC
:1007480084B0044688468268B2F5004F12D3082761
:100758000837A2EBD7070137B7FA87F7C7F12007A1
:100768003B462146554826F02DF8554826F02AF8EC
:1007780000262FE00427EBE755880AE0D26891426B
:1007880012D0013304EBC202A068B0F5004FF3D3D6
:1007980055684FEA550EBCEB550F00D8F446B0F536
:1007A800004FEBD2D288EAE79BB10122B240B0F504
:1007B800004F1AD3082101F1080002EBD002C1EB67
:1007C800CC010191CDF800C0013A31463D4825F0F1
:1007D800F9FF0136BE420ADA331D54F82310002906
:1007E800F7D00A4600239C46CBE70421E3E7B8F19B
:1007F800000F26D103AA02A9204625F0F8FEA36817
:10080800DC00B3F5004F56D308231C440399631A40
:10081800029A9B1A60084FF47A7505FB0300B0FB37
:10082800F4F0294CA4FB0054E40804EB8405A0EB85
:10083800450001900094254825F0C4FF04B0BDE8A8
:10084800F081234825F0BEFF002518E073881EE0DC
:100858002A225B08B1F5004F29D32158691AE818F4
:100868000190009129461B4825F0ACFFA368AB42D4
:10087800C0D0B3F5004F1CD3736805EB5305E800EF
:1008880004EBC506A168B1F5004FDFD3736813F018
:10089800010FDDD1B1F5004F05D372685208012A66
:1008A80003D02D22D5E72D22D3E72E22D1E7215AD6
:1008B800D4E77388E1E70423A7E700BF14B704006F
:1008C80044B7040000B80400CDCCCCCC5CB804001C
:1008D8001CB804002CB804002DE9F04F91B0059223
:1008E8000293134602F004020092C3F3C20210F00E
:1008F8000303019340F02D8280468A460132041D8D
:1009080000284FD0B8F1000F05D0A4EB080304333A
:10091800534500F22182029B5D1E019B04930693BE
:10092800039300264FF0FF3B0427B946B8F1000FA8
:1009380001D0029B2360531E0793002A40F35F8176
:10094800059B13F0020228D00120A4EB08018B08B4
:100958001AB1B1F5007F80F0058203990F2900F2E2
:100968000482B8F1000F00F06281DBB201F14002AD
:100978006A4402F8103C02F820BC002800F05381B9
:1009880063F07F0301F140026A4402F8103C049BC3
:1009980001330493039B0133039304340022CC46B0
:1009A80040463DE001F0070A5444CAF1080AA9E7A5
:1009B800002634E0002632E0002630E00827BC4656
:1009C8002DE025292BD10BF1010B01260427BC466C
:1009D80025E04729EED82A2914D32A39C9B24FF07D
:1009E800010E0EFA01F14FF6DA7E11EA0E0F16D15A
:1009F80011F0625F40F0C18011F0010F40F08C806F
:100A080000260CE0252903D10BF1FF3B002606E068
:100A180001D9002603E0202901D02329CCD11D4685
:100A28006B1C6978002900F01B81002EC9D07A2937
:100A3800BED84C29CDD34C392E2961D80FF2040EDB
:100A48005EF821F0270A0100090B0100090B0100DB
:100A5800090B0100090B0100090B0100090B01003A
:100A6800090B0100090B0100090B0100090B01002A
:100A7800090B0100190B0100090B0100090B01000A
:100A8800090B0100090B0100090B0100090B01000A
:100A9800090B0100090B0100830B0100090B010080
:100AA800190B0100190B0100830B0100830B0100D6
:100AB800830B0100270A0100190B0100C509010079
:100AC800090B0100270A0100090B0100DF0B0100D7
:100AD800190B0100DF0B0100090B0100090B0100D4
:100AE800E70B0100130B0100190B0100090B0100B2
:100AF800090B0100190B0100090B01000D0B010086
:100B080000268CE70427BC4689E70427BC4686E70D
:100B180029786C2925D000263C44013CB4FBF7F425
:100B280007FB04F4254620B1211A6144514500F21F
:100B38001681002A58D1BCF1040F00F08980BCF15D
:100B4800080F40F015811A99073121F0070101F1CA
:100B580008051A95D1E9008908B1C4E90089083463
:100B68005DE713F8021C6C2903D000260427BC4655
:100B7800D2E700260827BC46CEE729784C291AD0A8
:100B88001A99073121F0070101F108061A96D1E9EF
:100B98000067073424F0070440B1211A0831514591
:100BA80013D829784C2913D0C4E9006708340026E3
:100BB8000827BC4633E71A99073121F0070101F1EC
:100BC80008061A96D1E90067E3E76FF01B00BDE05D
:100BD800C4E90067EAE700260427BC469CE73246DA
:100BE80000260427BC4697E72C46E14680461A9A19
:100BF800111D1A9112680292079A1D4696E6624BD9
:100C0800029A9A4204D3614B9A420AD3002300E025
:100C18000023002B7FF494AE059B03F00202002012
:100C280093E60123F5E7069B01330693B2E610B17C
:100C38000AF1010AAEE6009B13B10AF1020AA9E61D
:100C48000298FFF7F9FA00EB0A0303F1020AA1E69A
:100C58001A990D1D1A95096800B121600434DEE661
:100C68008046231AB3F5806F80F0858090B100220A
:100C780002609B080370009B83B1069BC370049BB2
:100C880088F802301BBB019DDDF80C90DDF810B030
:100C9800029F3DE05344A3F1080057E0069B4370D0
:100CA800EDE701339842EED903F140026A4412F8A5
:100CB800101C12F9102C002AF3DA01F07F01A4EBC2
:100CC80008020132524559D804F8011BE9E7019B93
:100CD8000398E7E7009B43B305F140036B4413F81F
:100CE800203C04F8013B019EA4EB08033344013384
:100CF800534546D805F140036B4413F8103C04F8FB
:100D0800013B3246394620463AF0DCF83444013596
:100D1800A94519D9BBF1000FDCD005F140036B449C
:100D280013F9103C002BD5DAF1E705F140036B44C9
:100D380013F8103C58F82370002248F8232038464E
:100D4800FFF77AFA461CCFE7A4EB080011B0BDE81C
:100D5800F08F6FF00D00F9E76FF01B00F6E76FF00A
:100D68001B00F3E76FF01500F0E76FF01500EDE7F3
:100D78006FF01500EAE76FF01500E7E76FF01B006A
:100D8800E4E76FF01B00E1E7F8B004001CE10500A0
:100D98002DE9F04F97B000AF8346BA613B61D7F8B1
:100DA8008030C3F3C0033B62F96011B925F082FCBF
:100DB800F8609BF80260B14636B1D7F8803013F07E
:100DC800010F0DD1002300E000239BF803207A6275
:100DD80042B1D7F8802012F0020F22D1002202E09F
:100DE8000123F2E7002202B9EBB19BF80050AA00F8
:100DF800BA60DBF804207A610BEB8505BA69F2B1B9
:100E0800002B40F00581B9F1000F00F01081D7F8F0
:100E1800803013F0040F40F00E810020F861064680
:100E2800FAE00122DFE7BB691BB13A69F968584665
:100E38009847FC6820465C37BD46BDE8F08FFC68E3
:100E480053BB4D444FF00008D7F8803003F005033A
:100E5800FB604FF0000AC7F81080A046C7F81CB026
:100E6800D7F804B0BEE00444013501364E45EBD254
:100E78002A7800235BF822201946B86925F02FFC50
:100E8800BAF1000FEFD0D7F888309845EBD22AF89E
:100E9800180008F10108E6E70026B046D7F884A054
:100EA800E4E700253B6A7BB9002D7DD0D7F8803078
:100EB80013F0010F7DD1FB68002B73D10223A8EB3F
:100EC80003088CE00125EDE74946786925F04DFCDB
:100ED8000028E9D0BB4B1B6813F0060F40D06C46C6
:100EE800002387F82C30022387F82D308AB0694612
:100EF80011F1100237D012251AB1042D01DDB24BC1
:100F08004B61002387F82830022387F829306ABB11
:100F1800112D44DD122362B1042087F82C00002033
:100F280087F82D0087F82E00012087F82F00F86A2F
:100F380008616FF3000B6FF3410B6FF3820B6FF3D4
:100F4800C50B022161F3881BC3F30A0363F3532B18
:100F58006FF31F5B002359469A4800F0CFFDA54662
:100F6800A8F102083BE06FF00045C5E72B46082DC5
:100F780001DD786988610C2B01DDC1F81C9001F155
:100F8800200300200128C3D800F1300C07F1280EF7
:100F9800F4441CF830CC03F801CB0130F2E76FF0D1
:100FA8001B03B8E701238AE7D7F8803013F0020F54
:100FB80015D0002322461946B86925F090FBD7F8CA
:100FC800843053B13B69D7F88820934205D2D7F8CB
:100FD800842022F8130001333B61013880440AF170
:100FE800010A35467B6A9A4510D22E4616F8029BAE
:100FF8006B78FA6952F82340744B9C42FFF451AF66
:10100800734B9C42FFF45EAF00254BE7444611E763
:1010180007F144000023FB6118B14A46294639F01C
:1010280051FF4D444FF00008C7F804901EE000201F
:10103800F8610646F0E7FE6107F134000026EBE7A9
:1010480000253B6A33BB002D3BD0D7F8803013F026
:10105800010F26D0731C06F1300207F1280156183B
:1010680006F8149CDEB208F1010825467B6A98450B
:101078004AD22C4614F802AB95F801905BF8293057
:10108800524A9342DCD3524A934201D30025D8E70F
:101098000125D6E75146786925F067FB0028D2D0AC
:1010A800E1E7D7F8803013F0040FDCD0FA69531C5D
:1010B800303207F128010A4402F8249CDBB2FB61B4
:1010C800D1E7D7F8803013F0020F09D0731C06F16E
:1010D800300207F12801561806F8149CDEB2C2E760
:1010E800F869431C00F1300107F128028A1802F858
:1010F80024AC02460232D2B2FA6107F1580252FA1F
:1011080083F303F8249CAEE7D7F804909BF80030EB
:1011180087F854309BF80130334487F85530D7F8B6
:10112800803013F0020F0ED1FB69C3F3470387F831
:101138005730D7F8803013F0010F06D113F0040FA1
:1011480048D1002302E00023F1E7002387F8563056
:10115800DBF800003863786DCBF80000D7F8108012
:101168004246B9685846D7F818A0D047041EFFF67B
:1011780061AE386BCBF80000C7F810804246F969B9
:1011880007F13400D047002857DB04EB0008B968A2
:1011980049447B6A01EB4301D7F810904A46FB6843
:1011A800591A2846D047041EFFF644AE08EB04053A
:1011B8004FF000087E62C7F820B05646D7F884B0D2
:1011C8001FE000BFC8CD0020A4B80400F8B0040098
:1011D8001CE10500FB69B9E74FF0000A4A46012106
:1011E80007F12C00B047002829DB05445346224666
:1011F8004946304625F073FA002822DB054408F1F9
:1012080001087B6A984511D208F1300307F12802DA
:10121800134413F8143C87F82C303A6A52F82340E8
:10122800BBF1000FD8D03BF818A0D7E73A690021E6
:101238000846BB6998472C46FCE50446FAE504468F
:10124800F8E50446F6E500BF014B1860704700BF9B
:1012580020CA002080B505460E461746984623F05A
:101268009FFC034639F03AFF0446DFF8189049F826
:101278000030424639463046A84754F8090004F081
:1012880097F800BF080000002DE9F04383B004463A
:1012980008461546238B13F0080F05D103F00706FF
:1012A80000230093019354E0012909D043F020035F
:1012B800238385F31188BFF36F8F03B0BDE8F083F4
:1012C80043F010032383F4E7204625F0BCFD42E0F9
:1012D800D4F814904A466946204625F0CDFD4FF0D3
:1012E8000008238B03F00707B74269D0A268002AD9
:1012F80066D0012243F00803238385F31188BFF3E6
:101308006F8F002A64D1009B2BB14B463A46694641
:10131800204625F02AFEB8F1000F02D034492046B5
:10132800C047EFF31185202383F31288BFF36F8F33
:10133800238B23F008032383238B13F0100F4DD046
:1013480023F0100323830120268B06F007060028CC
:10135800AFD00228B8D00028ABD0013804282BD849
:1013680001A353F820F000BFD9120100C1130100F6
:101378008513010099130100AD1301002369D3F807
:1013880000800621204625F034FD4FF00009A8E72B
:101398002369D3F804800421204625F02AFD4FF064
:1013A80000099EE72369D3F808800521204625F027
:1013B80020FD4FF0000994E74FF00008C14690E780
:1013C800009A0AB1002295E7B8F1000F92D1B3E76D
:1013D8004A463946204625F014FD94E713F0200FBD
:1013E80004D023F0200323830220ADE70020ABE7DD
:1013F800A16F030070B506460D46084C04E02A4666
:101408003146204698471034054B9C4204D2236845
:101418009B69002BF3D1F6E770BD00BFC4B404008C
:10142800E4B404002DE9F041074605460AE007EA5E
:101438000807144B03EB06135B680422196820465F
:1014480000F02CFBD5B195FAA5F6B6FA86F60D4C48
:1014580004EB06140123B3406FEA030825EA0305E9
:10146800237B002BEED03301064AD3581B69002B8F
:10147800DDD0204698470028E4D1D8E73846BDE8B3
:10148800F08100BFC4B404002DE9F04180460F4646
:101498001E4BD3E8EF5F6A1CC3E8E12F0029F8D19F
:1014A800002D2FD11A4C002607E063680422196822
:1014B800204600F0F3FA01361034164B9C4213D242
:1014C800237B002BF7D02368DB680BB120469847B5
:1014D80023681B69002BE8D0204698470028E4D0F1
:1014E8000123B3401D43E6E7B8F1000F0BD055B117
:1014F8002846FFF797FF0546002FF8D00A2025F069
:10150800E1FEF4E700252846BDE8F0814C1A0120E9
:10151800C4B40400E4B4040008B5064B186018B15C
:10152800054B1B68092B00DC08BD044822F0A2FE0D
:10153800FAE700BF401A0120481A012050CE0020C7
:1015480008B5024822F096FE08BD00BF50CE002024
:1015580038B505460B4C00E010340B4B9C420FD2BB
:1015680063685B79002BF7D02946204625F0C0FE3A
:101578000028F1D023681B68294620469847EBE7E6
:1015880038BD00BFC4B40400E4B4040030B589B069
:1015980000220F490F4839F058FA0F4D0022002356
:1015A800CDE90623002404940E23039302940194A6
:1015B80000940A4B4FF440720949284638F073FFEB
:1015C8000849284622F0CAFE204609B030BD00BFAF
:1015D8004915010028D3002068CE00201D190100FC
:1015E800E8A201205CB90400014B53F820007047C1
:1015F80078B9040048B108B5054A1060054B196070
:10160800084600F07BFD002008BD6FF0150070470C
:1016180024CA00203C1A012008B5054B1B781BB1D1
:10162800034B01221A7008BD024822F023FEF7E797
:10163800B8A2012050CE002008B50C4BD3E8EF1F0C
:101648000131C3E8E21F002AF8D130B9084839F05F
:1016580008FA084822F00EFE08BD074BD3E8EF1F32
:101668000139C3E8E21F002AF0D0F7E7441A012045
:1016780028D3002050CE0020481A0120044B002017
:101688000146D3E8EF0FC3E8E21F002AF9D17047FB
:10169800441A012038B5FFF7F1FF0546094C00E070
:1016A8001034094B9C420BD263685B79002BF7D04E
:1016B80023685B68002BF3D0294620469847EFE75C
:1016C80038BD00BFC4B40400E4B40400034B186878
:1016D8000028D4BF00200120704700BF441A012011
:1016E80010B5044C0449204625F0D1F9034B1C6081
:1016F80010BD00BF84CD002064B90400381A012051
:1017080008B50023074A1370074A1360074A136095
:101718004FF400410648FFF76DFFFFF7E1FF00F0C7
:1017280063F908BDB9A20120441A0120481A012012
:10173800C572030008B50146014825F0FBFD08BD48
:1017480084CD002008B5024825F082FA08BD00BF04
:1017580084CD002008B50146024B186825F0F0FD3D
:1017680008BD00BF381A012008B5024825F0ECFD75
:1017780008BD00BF84CD002010B582B00022002330
:10178800CDE90023264B187808B902B010BD684689
:1017980025F0F2FD044668B1224BD3E8EF1F01396A
:1017A800C3E8E21F002AF8D12046FFF7D1FE204601
:1017B800FFF7D0FFFFF78AFF58B91B4A1368516833
:1017C80013F57A7341F1000113605160FFF7CCFF04
:1017D800DBE739F0CBF84A0142EAD06243011B1A31
:1017E80062EB0102920042EA93729B001B1842EBE3
:1017F8000102D20042EA5372C3F3103343EA424370
:10180800D20B0948016840685B1A62EB000240F29B
:10181800E9318B4272F10002CFD3FFF73BFFCCE7EF
:10182800B8A20120481A012020D300200F4B1B78B2
:1018380003B1704710B500210120FFF725FE0C4CBD
:1018480000E010340B4B9C4208D263685B79002B94
:10185800F7D023689B6820469847F2E7FFF78CFF8C
:101868000028FBD1014B01221A7010BDB9A201203A
:10187800C4B40400E4B4040010B582B0184BD3E833
:10188800EF2F511CC3E8E01F0028F8D1154B1B7837
:1018980063B9154B1B68B3B1BAB1092A13D1134800
:1018A80039F0DFF8124822F0E5FC0CE0EFF3118480
:1018B800202383F31288BFF36F8FFFF75DFF84F354
:1018C8001188BFF36F8F02B010BD00220023CDE94D
:1018D80000234FF400420023044823F015FCF2E7EC
:1018E800481A0120B9A20120401A012028D300205B
:1018F80050CE002010B50446044B1B689847A060E2
:101908002146034825F03CFD10BD00BF24CA002035
:1019180084CD00202DE9F04100210846FFF7B4FDF1
:10192800804650B140F26766002739F0D7FB154B67
:101938001858FFF7F1FD002515E04FF0FF364FF07E
:10194800FF37F2E74046FFF76DFD804670B94FF06C
:10195800FF364FF0FF3709E02C4632463B460A482F
:1019680022F0B0FC2546B8F1000FEBD1FFF704FFD9
:1019780004460028F6D1002DEED000210846FFF7D6
:1019880039FDEAE70800000050CE0020014800EBCE
:1019980081007047C8CD00200248034BC01AC00818
:1019A800704700BFC4B404002CB4040010B50C4642
:1019B800FFF7F2FFA04203D9024B53F8340010BDE1
:1019C8000020FCE72CB4040010B50C46FFF7E4FF38
:1019D800A04204D9034B03EBC403187910BD0020BF
:1019E800FCE700BF2CB4040010B5002410E0214629
:1019F8000020FFF7E9FF0A4A52F8243023F00703D2
:101A080042F8243000F00700034342F82430013440
:101A1800044B054A9B1AB4EBD30FE8D310BD00BFA3
:101A2800C8CD0020C4B404002CB404002DE9F84348
:101A38000D4616469846002812DBC4B200232046FD
:101A480025F0D8FC074610B1404500D947463B462B
:101A58003246E9B2204625F0ADFC3846BDE8F883A9
:101A68000C4B0D4AA3EB02094FEA1919002427462B
:101A78000DE0094B03EB04135868434632462946E8
:101A88000079FFF7D3FF874238BF074601344C453A
:101A9800EFD3E2E7E4B40400C4B4040038B5044664
:101AA8000D461146084BC31A1B11013342681371C6
:101AB8004368997125F0DAFC63681D606368012248
:101AC8005A71FFF7A9FD38BDC4B4040000B589B048
:101AD800059206930023079362B1074A0C9B029371
:101AE8000B9B01930A9B009305ABFFF751F909B0D3
:101AF8005DF804FB0022F1E7CB7403002DE9F04FF9
:101B08008BB004AF05461E468846C1F34A24002C14
:101B180000F08F8091460022FA603A617A610423CE
:101B28000293FB1801930A23009307F10C03214643
:101B38004846FFF72DF9B0F5006F5ED3464B1B689A
:101B480013F0060F00F08480D9F804106D460023C6
:101B58003B7302237B738AB004AC14F1100221D0CA
:101B680012201AB1042801DD3C4B636100233B704D
:101B780002237B70CAB10346082800DDA1610C2B43
:101B880002DD40F2FF73E36104F120030021012923
:101B98000BD801F118063E4416F8186C03F8016BCF
:101BA8000131F4E76FF00040DBE7112822DD122352
:101BB80042B10421397300217973B9730121F97392
:101BC800F868206100216FF300016FF341016FF3A2
:101BD80082016FF3C501022060F38811C3F30A0381
:101BE80063F353210023C1F313011B4825F0DCFCE8
:101BF800AD462DE06FF01B03DAE760F35328C0F31E
:101C08000A0A0AEB1850173020F007008008FFF77F
:101C180091FD8346B0B104230293FB1801930A2374
:101C28000093534600F1100221464846FFF74EFF45
:101C380008E004EB1154173424F00704A008FFF758
:101C480079FD8346334642462946584625F04FFCDF
:101C58001C37BD46BDE8F08FE0CD002098B90400E0
:101C68002DE9F04F85B080460D4617461E46DDF833
:101C780038B0DDF84090B9F1000F46D0119B0393BE
:101C880000934B460F9A10210020FEF725FEB0F571
:101C9800006F2DD282460BEB0003173323F00703A6
:101CA80000246FF300046FF341046FF3820468F3B8
:101CB800C50467F3881460F353246BF31F54980822
:101CC800FFF738FD074650B11030B9F1000F06D0C4
:101CD800119B00934B460F9A5146FEF7FDFD334684
:101CE80022462946384625F002FC05B0BDE8F08FAB
:101CF800074B1B6813F0060FF7D040F2FF73054A35
:101D08000221034825F045FCEFE70020C2E700BFA9
:101D1800E0CD0020D8B90400406820B1034BC01AB8
:101D280040F38F0070474FF0FF307047C8CD002058
:101D38000EB400B582B0014603AB53F8042B0193EF
:101D4800034803F0D5FE02B05DF804EB03B070471A
:101D5800E775030030B585B011F0440F05D01A4B74
:101D68001C6834B9002005B030BD1849FFF7E0FF02
:101D7800F9E7174B1968B2FBF1F1B1FBF4FC154A0E
:101D8800A2FB0C32D20A4FF4616E0EFB12CE124B3C
:101D9800A3FB0E535B0904FB1C114FF47A7C0CFB6C
:101DA80001F1B1FBF4F504FB15110CFB01F1B1FBDA
:101DB800F4F102910195C3EB0311AEEB810100919F
:101DC8000649FFF7B5FFCEE7541A012010BA040000
:101DD800501A0120C5B3A291898888881CBA0400CA
:101DE80061B108B52AB1064A52F8232012B9054A4A
:101DF80000E0044A0449FFF79BFF08BD704700BF95
:101E0800B8BA040038BA040070EE04002DE9F041B5
:101E180005461746069EDDF81C8081B900242EB1C0
:101E2800324611492846FFF783FF0444B8F1000FF2
:101E380014D06FB1099B042B13D00C4909E00C4B4B
:101E4800099A53F822200B49FFF772FF0446E6E788
:101E5800064942462846FFF76BFF04442046BDE882
:101E6800F0810549F5E700BF54BA040044BA0400FC
:101E7800CCBA04004CBA040040BA04002DE9F04F73
:101E880087B005460C46049205939DF84C7001F006
:101E9800020B01F0010AC1F3C00801F4807925F0B2
:101EA80075FA18B3024616492846FFF741FF064659
:101EB800BBF1000F1CD13A465146284625F0B6FB27
:101EC800B9F1000F01D0002311930397129B0293DD
:101ED800119B0193109B00930023049A41462846C6
:101EE800FFF794FF304407B0BDE8F08F0026DFE726
:101EF800059A21462846FFF72DFF0644DBE700BF79
:101F080058BA040011F0100F0BD108B511F0200FCA
:101F180003D00449FFF70CFF08BD0349FFF708FF8A
:101F2800FAE7704714D104005CBA04002DE9F041C7
:101F380005460F46164698460699FFF7E3FF002424
:101F4800444505DA24492846FFF7F2FE0134F7E74D
:101F5800002409E020492846FFF7EAFE0BE01F4964
:101F68002846FFF7E5FE01340F2C0CDC002C02DDBF
:101F780014F0070FEED0B442F1D23A5D1849284662
:101F8800FFF7D6FEEFE717492846FFF7D1FE0024F2
:101F980009E011492846FFF7CBFE0BE01249284615
:101FA800FFF7C6FE01340F2C13DC002C02DD14F001
:101FB800070FEED0B44207D23A5D0C4B9B5C13F08E
:101FC800970FEBD12E22E9E703492846FFF7B0FE29
:101FD800E8E7BDE8F08100BF50BA040068BA040021
:101FE80060BA04006CBA0400D0C60400FBDF050028
:101FF8002DE9F04184B004469DF82C500C9F0E9EAC
:1020080095B9012B1ED019484FF0000827B13B465F
:102018002246174924F079FBC6B905BB204625F0AE
:10202800C7FA04B0BDE8F08103950A9802900193BD
:1020380000920B4600220F992046FFF71FFF8046AB
:102048000C48E3E70B484FF00008DFE70F9B0093CD
:10205800434632460D99204625F000FBDDE72A4627
:102068000F99204625F0EEFAD8E700BF177603004F
:10207800F95A0100E77503002DE9F04383B00646DD
:10208800056842F20F738B4228BF0B46184A052198
:10209800684623F04DFA04467368D3F804900B277A
:1020A800DFF8508005E04A4639464046A8473F1ABF
:1020B8008044002FF7D17368D3F804806F4605E099
:1020C800424621463846A847241A0744002CF7D12F
:1020D80073685F681B24084E05E03A46214630467F
:1020E800A847241A0644002CF7D103B0BDE8F083B2
:1020F800C8D104008CBA040070BA0400074B01224E
:102108001A6004E04008054A13685B001360044B3A
:102118009842F7D8034B1860704700BF501A012047
:1021280040420F00541A0120034B01221A70034B3E
:10213800034A1A60704700BFBAA20120801A012022
:10214800841A012008B5034B01221A70024825F0B1
:10215800D3FA08BDBBA201200CBB0400014B1960D7
:10216800002070476C1A012008B518B9074B0022E7
:102178001A7008BD064B1B7823B141F2883038F03D
:102188005BF8F6E7052025F0CEFAF2E7BAA20120BF
:10219800BBA2012038B504460A4B01221A700A4B2B
:1021A8001B782BB938BD651E2046FFF7DDFF2C468E
:1021B800002020F07BFC0028F4D0024B1B78002B79
:1021C800F1D1EFE7BAA20120BBA20120F8B506467B
:1021D8000D4604270DE02A463146002020F0B0FBCA
:1021E800044614E03846FFF7D5FFDCB9114B1B78DD
:1021F800C3B1114B1B78002BEDD120F067FC2A46A8
:102208003146002020F09CFB044620F06BFC002C9B
:10221800E8D1084B1B78002BE7D0013F3846FFF781
:10222800A3FFE2E714B9034B1B7803B92C462046F9
:10223800F8BD00BFBAA20120BBA2012008B5024820
:10224800FFF71AFF08BD00BF0CBB040010B50C4611
:10225800044B1868FFF7C8F903460F2221460248C5
:10226800984710BD6C1A01200CBB0400014B036099
:10227800002070471CBB040010B5044628F031FA52
:1022880002460349204625F0D5FE002010BD00BFB8
:1022980048BB040030B583B00546134600220192BE
:1022A80001AA0A21586801F07DFD019C24B925F096
:1022B80050FA204603B030BD22460349284625F08F
:1022C800D7FE019CF5E700BF78BB040008B5034AB8
:1022D800034925F0AFFE002008BD00BF78BC04000C
:1022E80080BC04002DE9F04182B006461546002363
:1022F800019301AA0A21A86801F054FD019C9CB928
:102308008046C3B2042B16D8686825F08BF8071EE0
:102318001BDB3AB25FFA88F30021084625F09CF8E7
:10232800204602B0BDE8F08122460B49304625F030
:102338009FFE019CF4E7C2B20849304625F098FE9A
:10234800304625F0D6FE0124EAE76A68044930469B
:1023580025F08EFEDDE700BFACBC0400D4BC040051
:10236800ECBC040010B5044605F0A0FC0246074981
:10237800204625F05FFE0649204625F05BFE2146F3
:10238800044822F0DBFC002010BD00BF50BD040053
:1023980070BD0400A123010070B58EB004460D463F
:1023A800D0F89C6038F06EF8034638F097FE214A62
:1023B8001258944229D0204A4BB3009323461F4910
:1023C800284625F037FED4E90A23CDE9002394F9FD
:1023D8000E30227B1A49284625F02CFE202205A91A
:1023E800204621F0CDFF0246636E1649284625F0A7
:1023F80021FE0DA9204638F089F8024648B1124955
:10240800284625F017FE0EB070BD104AD4E7104BD1
:10241800D3E70D9BF11A642201FB02F2B2FBF6F23C
:1024280002920196009132460A49284625F002FE9A
:10243800E9E700BF0800000050BA040080BD0400AE
:102448008CBD0400B8BD0400D0BD040054D4040001
:102458007CBD040000BE040070B590B005460024A1
:10246800089409940A940B940C940D940E940F9468
:102478004FF02033089309930A930B930C930D9311
:10248800ADF838300146144822F058FC14B1002049
:1024980010B070BD114E06EBC42607AA4FF40061B8
:1024A800304638F022F8079AC2F50061642301FB30
:1024B80003F3DB0A05934FF400630493039102923C
:1024C800019308AB0093234632460549284625F078
:1024D800B1FD0134DAE700BFED240100E8AD0120C9
:1024E80058BE0400F0B589B004460D46D0F89C608B
:1024F80007A938F00BF8B8B9204637F0C3FF079999
:10250800771A642207FB02F2B2FBF6F2034688B19F
:10251800049203960297019100962246064928469E
:1025280025F088FD09B0F0BD02460449284625F08B
:1025380081FDF7E7024BEBE7A4BE0400D0BD040021
:102548007CBD040010B503460C461146006808B16E
:10255800027822B9024A204622F0EAFF204610BD3E
:102568000CBF040070B586B0054605A821F0F2FA44
:1025780000EB8000059E06EB8006124A08212846DB
:1025880025F04AFD059C06E00F4B104A0821284615
:1025980025F042FD1434B44211D214226946204673
:1025A800FFF7D0FF03460A4A0821284625F034FDE4
:1025B800204637F047FE0028E6D0064BE5E7002026
:1025C80006B070BD28BF04001CBF04003CBF040057
:1025D80034BF040014BF040008B5102A12D0202A02
:1025E80013D0082A06D00A4A082125F015FD6FF0F5
:1025F800150006E00B78DBB2064A082125F00CFD31
:10260800002008BD0B889BB2F6E70B68F4E700BF13
:10261800B4BF0400CCBF040008B5029B102A0ED03A
:10262800202A10D0082A06D0084A082125F0F4FCF0
:102638006FF0150002E0DBB20B70002008BD9BB202
:102648000B800020FAE70B600020F7E7B4BF040016
:102658002DE9F04182B004460D46164610220021AD
:10266800706823F007F80746022D20D84FF020089D
:102678004346164A0821204625F0CEFC032D1ED9D4
:1026880010220021F06822F0F5FF05460346104AA3
:102698000821204625F0C0FC0095002301934246FE
:1026A80039462046FFF7B8FF02B0BDE8F0810A229C
:1026B8000021B06822F0DEFF5FFA80F8D8E74246D2
:1026C80039462046FFF788FFEEE700BFE0BF040069
:1026D800F8BF040038B504460D4611B10E4B1B78FF
:1026E8005BB90D4A137883F0010313705BB929466F
:1026F800204625F01AFD002038BD084925F0B8FC11
:102708006FF00F00F8E70649204625F093FC024BCE
:1027180001221A70EBE700BFBCA201200CC0040024
:1027280048C00400F8B507460E4615460023244A5B
:102738001370244A1360244A13600CE000231C44DD
:1027480002222249204638F026FC98B91C4B012267
:102758001A700435013E012E1DD96C6802221C49ED
:10276800204638F018FC0028E8D1A378002BE6D0E2
:102778000123E4E716492046FDF74CFD50B12378C4
:102788002D2B08D1637833B122461249384625F0FB
:1027980051FCDEE7043500221146686822F0F4FE99
:1027A8000D4B186000221146686822F0EDFE0B4BB5
:1027B80018600B493846FFF78DFF0020F8BD00BFB1
:1027C800BEA20120A01A0120A41A012078C004008A
:1027D80074C004007CC00400AC1A0120A81A0120AF
:1027E800ED27010038B50546554B1B78182B01D04D
:1027F800002305E00B78112B32D0002300E00133D1
:1028080002F1FF3C9E469C4509D9CC5C182CF6D1B8
:102818008E449EF801001128F1D1012300E0002325
:10282800F3B911F80C20464B1A700A78A2F130035C
:10283800DBB2092B09D9A2F16103DBB2052B04D95C
:10284800A2F14103DBB2052B05D83E490B683E488F
:10285800C25401330B603B4B1B68022B5DD038BD63
:102868003A4B1A683A49284625F0E4FB00212846E5
:10287800FFF730FF374B1B78002BF0D113E0364DB4
:102888002A681068030A03F47F4343EA10630402CA
:1028980004F47F04234343EA006342F8043B2A60BC
:1028A80004392A4B1960294B19680429E7DC11F00F
:1028B800030F0FD1284B18680268130A03F47F43EB
:1028C80043EA1263110201F47F010B4343EA0263F6
:1028D8000360C4E74B4201F0030103F0030358BF50
:1028E800594202290FD00329B9D11B4B19680B682B
:1028F800C3F3074203F47F4002431B0403F47F033E
:1029080013430B60ABE7144B19680B68C3F307223A
:102918001B029BB213430B60A1E7102200210A4857
:1029280022F0A8FE0D4A136803F8010B1360074A4A
:10293800136801331360034B00221A608FE700BF4E
:10294800BDA20120A01A01209C1A0120A41A01206E
:1029580094C00400BEA20120A81A0120AC1A0120CC
:102968002DE9F04385B080460F4615461C46DE0823
:10297800002D5DD04FF0000C08E01CF807300CF17A
:1029880010010DEB010C0CF8103C9446B54240D3F5
:102998000CEB0602102A3CD8102C0DD0202C1BD092
:1029A800082CEAD0234A0821404625F035FB6FF071
:1029B800150005B0BDE8F0833CF807300CF11001B4
:1029C800694401F8103CC3F307230CF111010DEB26
:1029D800010C0CF8103CD8E75CF807300CF110013A
:1029E800694401F8103CC3F307200CF11101694454
:1029F80001F8100CC3F307400CF11201694401F807
:102A0800100C1B0E0CF113010DEB010C0CF8103C13
:102A1800BBE7A946102D28BF4FF010094B466A4660
:102A28003946404600F032FF1037A5EB09059FE70D
:102A38000020BEE7B4BF04002DE9F84306460D4662
:102A48001446404B01221A6003F068FA4FF0FF3732
:102A58004FF02009B8463C4A2146284603F082FA3E
:102A6800B0F1FF3F51D073281FD0772835D06128A7
:102A780003D06FF01500BDE8F88310220021334B16
:102A8800186822F0F7FD07460028E4D138F026FB45
:102A98002F4B1B58162BDED12C4B1A682D4930466C
:102AA80025F0E6FA6FF01500E5E700221146274BFE
:102AB800186822F0DFFD80460028CCD138F00EFBE4
:102AC800234B1B58162BC6D1204B1A682249304677
:102AD80025F0CEFA6FF01500CDE7002211461B4B0A
:102AE800186822F0C7FD81460028B4D138F0F6FAFC
:102AF800174B1B58162BAED1144B1A681749304682
:102B080025F0B6FA6FF01500B5E7B7F1FF3F0AD028
:102B1800B8F1FF3F0ED05FFA89F342463946304696
:102B2800FFF71EFFA7E70E49304625F0A1FA6FF020
:102B38001500A0E70B49304625F09AFA6FF015000A
:102B480099E700BF90CA0020ECC00400E01E0120F5
:102B58000C000000B0C00400C4C00400D8C00400C9
:102B6800F4C0040014C1040010B50246034653F82B
:102B7800584B4021C16403630023C36383634363E9
:102B880083644364036400F150010820D06211613A
:102B9800D36193615361936253621362C2F8D03078
:102BA8000349204624F0FBFD204624F012FE10BD08
:102BB800537903002DE9F04383B080460F464FF068
:102BC80000090BE06FF057044FF001092146284631
:102BD80024F0C5FA002C32D0B44230D107F13005C8
:102BE800FA6C01A9284624F099FA064670B10199B1
:102BF800D8F808301B69002BE4D0024640469847B5
:102C080004460028E2D04FF00109DFE7114B1B68AA
:102C180013F0060F0AD1D8F808301B6963B10122F6
:102C28000DF10301404698470446D3E70A4A0221BA
:102C3800084824F0A4FCEEE76FF05704CCE7B9F19C
:102C4800000F03D07B68B9680020984703B0BDE83F
:102C5800F08300BF04CE0020D8C2040000B583B0C2
:102C6800094837F0EFFA60B1042300930123074ABB
:102C780012680549064800F0BBFE002003B05DF865
:102C880004FB6FF01200F9E7C0B10400F0C20400C1
:102C9800E4B4040083681975022900D0704710B5A0
:102CA800044683689B6C03B110BD24F068FEA368DA
:102CB800D3F8783213F4805F03D1204625F04EFD17
:102CC800F2E7054B054A0321204625F0AAFC00211E
:102CD800204624F009FFF0E79CC3040070EE0400CE
:102CE80010B5044624F0E3FEA3685B6C13B10146FB
:102CF80020469847A3680022C3F8202338F0EEF94D
:102D0800014B185802F054FB0800000008B583680E
:102D1800D3F8743213F0200F00D108BD024940697E
:102D280024F0B5FFF9E700BF20B6040010B504464B
:102D38008168183101F02AFBA168034A183120463E
:102D480025F0CCFE10BD00BFE0C3040009B100208F
:102D5800704710B5044683689B69054A012125F030
:102D680060FC2046FFF7E2FF6FF0150010BD00BFC2
:102D7800F0C30400F8B5044616468068426A72B18A
:102D88000D4690F8282092B390F82930FF2B25D0D3
:102D9800AA4226D81344AB4248D2002122E0ABB164
:102DA8005A68002A44D0C1698A420AD000F1180E34
:102DB8009C46BCE80F00AEE80F00DCF80030CEF807
:102DC80000302046FFF7B2FF01272DE01A4A012103
:102DD800204625F026FC6FF0070725E04FF6FF7325
:102DE800D6E700212046FFF7B1FF0746E0B90121E9
:102DF800204624F0C1FEA06800F5437021F0FCF9DC
:102E0800A3685B6A32462946204698470746A06869
:102E180000F543704FF0FF324FF0FF3321F06CF9AB
:102E28000021204624F0A8FE3846F8BD0121D9E744
:102E38006FF00707F8E700BF0CC4040091B110B5A4
:102E480004460846D36803B910BD204625F046FB62
:102E5800204601F0A3F8044A0121204625F0E1FBB1
:102E68000020F1E7012070472CC404002DE9F04749
:102E7800A6B00646542200210CA838F04AF80023D0
:102E88000693059304934FF0FF330393B36803F15C
:102E9800560A304625F022FB304625F0B1FAC8B173
:102EA800B36800279F61DF611F625F629F623046DF
:102EB80025F033FAB168B1F850205631304624F085
:102EC800FDFE304626F037F80897B8460CACB946F0
:102ED8003D465BE06C49706924F0D9FEE0E70028C4
:102EE8006AD00346694A0121304625F09AFB6FF003
:102EF8000700A1E0206801F06BFA00285FD0089B6A
:102F08005BB1B468183407AD0FCD0FC42B682360CC
:102F18003046FFF70BFF01208EE05D4A0121304665
:102F280025F07FFB6FF0070086E0226829463046CF
:102F380026F026F8022868D0032843D0069B0133E0
:102F480006934FF0010921E021AA2168384625F0AF
:102F58008FF9054639E0069B93B9B368DB6A23B15C
:102F6800DB6813B14FF0010848E04A4B00930C9B13
:102F7800494A0121304625F054FB4FF001083DE055
:102F88004FF001083AE0069B01330693049B012B9E
:102F98003BD0069B132B38D8039B002B35D002233C
:102FA8005246214604A800F05DFED4F804A0049B14
:102FB800002B63D0012B92D0069B002B9AD1069B45
:102FC800002BB2D1B8F1000FBED00434039B013BF3
:102FD8000393002DBFD02A4649463046FFF72EFFFF
:102FE80000284ED0B16803AB019305AB009306AB44
:102FF80007AA1831284624F0E0FC2F46039B002B33
:10300800C1D1049B022BC1D1BDE7069B132B02D96A
:10301800049B022B13D0B9F1000F19D117B17B7C97
:10302800FE2B20D0059907AB0CAA02EB810206986B
:10303800411A3046FFF79EFE26B0BDE8F087174BD1
:10304800174A0121304625F0ECFA6FF00700F3E744
:10305800304625F0A8FFB268142356320CA906A8FA
:1030680000F000FEDAE7069B26AA02EB830252F87C
:10307800682C002AD6D001330693D3E76FF00700F7
:10308800DAE76FF00700D7E714D104005CC4040046
:103098000CC4040078C4040070C404008CC4040088
:1030A800DCBB0400F0B583B004461D468068B0F868
:1030B8005030FF2B49D00F461646B0F8522000F189
:1030C800560100F5AB7037F0FDFEA368B3F8522047
:1030D8001344002283F85621A268142302F5AB7228
:1030E8003168284600F0BEFD2B68142B30D83268B2
:1030F800002142F82310A368B3F85220D2B1013A54
:10310800134493F85630144AD35C03F008032C6830
:1031180094B113B9012C0FD0013C00200190099BF8
:103128000093089B3268214625F0C5F8386048B1FD
:1031380001200BE00023EAE70023089A13603B60B4
:10314800012003E034B9012000E0002003B0F0BD05
:103158000020FBE70020F9E7FBDF0500F8B504468F
:103168000E461F4672B31046FDF766F885B2A26890
:1031780018323946304600F09BFD066826B33046C3
:10318800FDF75AF880B2A84220D1A268B2F85230AE
:10319800134493F856301649CB5C13F0080F21D12D
:1031A800D2F8743213F0010F17D00021204624F012
:1031B80013FD2021204625F07FFA0121204624F026
:1031C8000BFDF8BD0025D2E70020DCE7421B92B2D8
:1031D8007119204625F08CFAD7E72021204625F0E2
:1031E8006BFAEEE70121204625F025F9E9E700BF53
:1031F800FBDF05002DE9F04182B0064649B30F46D2
:10320800023294B2D0F80880B8F83A50023D95FBE3
:10321800F4F5ADB20846FDF70FF880B2241AA4B24F
:10322800B8F840305A1CA8F84020B3FBF5F205FB6B
:1032380012339BB293B900970C4B0D4A06213046C6
:1032480025F0EFF92146304600F064FE02B0BDE8F3
:10325800F08183680022A3F84020F7E73B46054A3F
:103268000621304625F0DDF9ECE700BFB0C40400C4
:10327800B4C4040070EE04002DE9F84F07468946EF
:103288001D460A9EBDF82CB0904652B11046FCF778
:10329800D3FF1FFA80FA5A4600213846FFF7AAFFE3
:1032A80008E04FF0000AF6E75A4621683846FFF76B
:1032B800A1FF013EA6B1BA6818322946484600F077
:1032C800F7FC04460135B8F1000FEDD0006800287E
:1032D800EAD05246414637F05EFE0028E4D0E9E7DE
:1032E8000449786924F0D3FC384625F037FABDE85C
:1032F800F88F00BF14D1040010B50446013916290F
:103308000FD8DFE801F00C0F1226292C0E0E0E0E36
:103318002F320E4C0E500E0E0E0E540E610025F07C
:10332800D4F810BD25F0E5F8FBE725F0D7F82046DE
:1033380025F066F840B10121204624F035FC022131
:103348002046FFF7A7FCECE72349606924F09FFCBF
:10335800F1E725F0D1F9E4E725F0C0F8E1E725F039
:10336800D3F8DEE725F0DDF8DBE78368D3F87432BD
:1033780013F0200F09D1A368D3F8743213F0200F8B
:1033880008D1204625F0EAF9CBE71449406924F032
:103398007EFCF0E71249606924F079FCF1E700212E
:1033A80024F088FDBDE7012124F084FDB9E725F06C
:1033B8008CF8204624F0E3FA0121204624F0F4FB9F
:1033C8002046FFF7A3FCACE700F090FE0121204661
:1033D80024F0EAFBA5E700BF14D1040028B60400D6
:1033E80030B6040070B586B0044600230593A36880
:1033F8009D6CF5B1606803681E6905AB10226946CB
:10340800B047059B9BB10121204624F0B5FB059AE6
:1034180069462046A8470021204624F0ADFBA36852
:103428009B6C002BE3D102212046FFF733FC06B04A
:1034380070BD606803681D6905AB01220DF11301B9
:10344800A847059B002BF2D09DF813109DF9133067
:10345800002BCCDBA268537D032B00F25081DFE800
:1034680013F00400B800CA004B01204624F0CFFA3C
:10347800002841D19DF813101B2953D81B2900F2AD
:103488008E8001A353F821F0F7330100A73501001E
:10349800A7350100A7350100A7350100A7350100B0
:1034A800A7350100A735010081350100633501000A
:1034B800A7350100A7350100A7350100A735010090
:1034C800A7350100A7350100A7350100A735010080
:1034D800A7350100A7350100A7350100A735010070
:1034E800A7350100A7350100A7350100A735010060
:1034F800A73501005B350100A568B5F850305BB908
:10350800204624F0D2FB7F49606924F0C0FB0221E9
:103518002046FFF7BFFB6AE72046FFF7A7FCC5F880
:103528002403F4E77F293AD1A368D3F8743213F05F
:10353800020F3FF45CAF0121204624F035FBA3685D
:10354800D3F8743213F0080F25D0204625F0F3F88D
:103558004DE7A36801225A7549E7A368D3F8743286
:1035680013F0020F3FF443AF0121204624F01CFB67
:10357800204624F047FC3AE7A368D3F8743213F0E6
:10358800020F3FF434AF0121204624F00DFB204602
:1035980025F0D1F82BE7204625F0AEF827E75A4B5F
:1035A8005B5C13F0970F0AD1A368D3F8743213F059
:1035B800020F3FF41CAF2046FFF79EFE17E70121DC
:1035C800204624F0F1FA9DF81310204625F074F8EF
:1035D8000DE75B2908D0D2F8743213F0020F06D138
:1035E800A36800225A7502E702235375FFE62046B6
:1035F80024F051FCF4E700235375A368D3F8742230
:1036080012F0020F3FF4F3AE31391B293FF6EFAE4B
:1036180001A252F821F000BFC1360100CD360100E9
:10362800E7360100B5360100F7330100F733010032
:10363800F7330100F7330100F7330100F7330100D6
:10364800F7330100F7330100F7330100F7330100C6
:10365800F7330100F7330100913601009B36010072
:10366800A5360100AD360100F7330100B936010077
:10367800F7330100C5360100F7330100F7330100C5
:10368800F7330100D13601000121204624F012FC55
:10369800ADE60021204624F00DFCA8E6204624F0E3
:1036A80033FFA4E6204624F024FFA0E603225A753F
:1036B800204624F013FF9AE603225A75204624F088
:1036C80004FF94E603225A75A368D3F8741201F034
:1036D800010181F00101204624F07EFA87E60322E9
:1036E8005A75A368D3F8743213F0020F3FF47FAE13
:1036F800204625F001F87AE60023537577E6002383
:10370800537574E614D10400FBDF050083681A7D45
:10371800012A2DD110B50446D3F8782212F4804F2F
:1037280004D0D3F8742212F0040F1BD0A06800F55F
:1037380043704FF0FF324FF0FF3320F0DDFC0821DB
:10374800204600F0A9FC0C49606924F0A0FA022187
:103758002046FFF79FFAA06800F5437020F04CFD63
:10376800002010BDDA6C0146C06925F030F9DDE7AC
:103778006FF08500704700BF14D1040038B50446C7
:103788001546003918BF012124F0C6F9A368DD6485
:10379800606803689B680021984700B138BD2046DF
:1037A800FFF7B4FF0028F9D11AE0A06800F54370CC
:1037B8004FF0FF324FF0FF3320F09EFC2B461E4A9D
:1037C8000121204624F02DFFA06800F5437020F069
:1037D80013FDE3E79847A06800F5437020F00CFD5F
:1037E800A06800F52F704FF0FF324FF0FF33032130
:1037F80021F0CAFC05460028D7D1A06800F543701F
:103808004FF0FF324FF0FF3320F076FC0B4A0221D5
:10381800204624F011FA0A4A0021204624F00CFA26
:10382800084A0121204624F007FA606803685B69AA
:10383800002BCFD1CFE700BFBCC40400E92C0100A6
:103848006F7F03005D7A030010B504460A4924F02F
:10385800F1FB0A49204624F0EDFB0949204624F0F3
:10386800E9FB0849204624F0E5FB074A00212046E9
:1038780025F034F9002010BDD4C4040014C5040098
:1038880074C50400C8C5040064C60400F8B505463C
:1038980017461E460A46244924F0CCFB002409E0BA
:1038A8002249284624F0C6FB0BE02149284624F08B
:1038B800C1FB01340F2C0CDC002C02DD14F0070FC7
:1038C800EED0B442F1D23A5D1A49284624F0B2FB50
:1038D800EFE71949284624F0ADFB002409E0134915
:1038E800284624F0A7FB0BE01449284624F0A2FB45
:1038F80001340F2C13DC002C02DD14F0070FEED07E
:10390800B44207D23A5D0E4B9B5C13F0970FEBD194
:103918002E22E9E70549284624F08CFBE8E7094907
:10392800284624F087FBF8BD7CC6040050BA040082
:1039380068BA040060BA04006CBA0400D0C6040077
:10394800FBDF050084C604002DE9F04106468846E1
:1039580017464FF44A720021806837F0DAFA304689
:1039680024F090F9B06800F5437036F045FD002565
:1039780017E0B0682C0104F51E742044043037F0B9
:103988002AFAB068031905EB850C4FEA8C0C0CF584
:103998002E7C6044043300220121043037F0E9F919
:1039A8000135032DE5DDB36900241C600121304693
:1039B80024F0CAF8B36850225A87B36818221A87C5
:1039C8003168304624F063FB64F38207B368C3F8B8
:1039D8007472706803681C683346044A4146A047FD
:1039E80010B9B36801221A75BDE8F081737C030031
:1039F80070B588B004468068D0F8200310BB1D4617
:103A08002046FFF7A1FF064610B1304608B070BD4A
:103A1800A06AE16A00220023CDE90623002304936B
:103A28000E2303930C9B029301950094074B4FF4CC
:103A3800006236F038FDA368C3F82003616A20F0FD
:103A48008DFCE2E76FF07706DFE700BF85370100FE
:103A580010B5044613460A460146054802F048F8E0
:103A680023691B7903B910BD204624F066FBFAE7E9
:103A78005B81030070B50C46037873B12388C218C4
:103A880012F8012C11498A5C12F0080F06D0013B8C
:103A98009BB22380002BF1D1037070BD0022C25469
:103AA80013461D4601339BB24119425D074EB25C75
:103AB80012F0080FF5D1002DEFD02288521B0132E9
:103AC80037F00DFA23885B1B2380E6E7FBDF050050
:103AD8002DE9F8430746056800269CE06C1C4DB1AB
:103AE8002846FCF7A9FB82B22146284637F0F7F9A9
:103AF800254690E00022F7E76E1C4DB12846FCF7FA
:103B08009BFB82B23146284637F0E9F9264682E027
:103B18000022F7E76C1C4DB12846FCF78DFB82B2FA
:103B28002146284637F0DBF9002674E00022F7E743
:103B38006C1C2846FCF780FB82B22146284637F0E9
:103B4800CEF9254667E04FF000080224042C0CD873
:103B58002B5DA3F13002D2B2072A06D842EAC80286
:103B68005FFA82F80134E4B2F0E7022C6DD904F16F
:103B7800FF39A94465B12846FCF75EFB82B2023CD6
:103B8800121B4946284637F0AAF905F8018B42E08E
:103B98000022F4E7A3F16102D2B2052A14D8573BF8
:103BA800DBB243EA08135FFA83F80134E4B2032C6A
:103BB80016D82B5DA3F13002D2B2092AEAD842EA1C
:103BC80008125FFA82F8F0E7A3F14102D2B2052A9F
:103BD80006D8373BDBB243EA08135FFA83F8E4E719
:103BE800022C17D904F1FF39A94465B12846FCF71E
:103BF80023FB82B2023C121B4946284637F06FF974
:103C080005F8018B07E00022F4E7154B1B5D13F064
:103C1800080F20D101352C78ECB146B9272C3FF498
:103C28006BAF5C2C3FF45AAF222C3FF465AFA64231
:103C38003FF470AF002EE8D05C2CEBD16B789E423D
:103C48003FF476AF302B3FF47EAF782BE2D14FF0C4
:103C580000080224ABE73D603046BDE8F88300BFAA
:103C6800FBDF050070B582B004460E4601921D4682
:103C78000020206007E0531C01930023137002E02A
:103C880001A8FFF725FF019A117869B1074B5B5C22
:103C980013F0080FEFD123685A1C2260019A46F8E6
:103CA80023202368AB42EBD102B070BDFBDF0500D7
:103CB8008C46034688B110B51446806820B3154B6E
:103CC800984214D3144B984211D2036811466046A7
:103CD80098472068C0B1204616E01049104A521A89
:103CE800BCEB920F01D251F82C30184670470D4B9F
:103CF800984202D30C4B984207D300680CEB8C0C0B
:103D080000EB8C0003681BB110BD0CF1010CF5E74A
:103D18001846F9E71CB604001CB6040014B50400E4
:103D280040B5040040B504001CB60400002835D096
:103D3800F8B50646FCF780FA85B275B30024274625
:103D480006E00137BFB2013292B20EE00134A4B2EC
:103D5800AC466B1E9C4220DA2046335D104AD35C89
:103D680013F0080FF2D0621C92B29542EED906EB1E
:103D7800020EB35C0A49CB5C13F0080FE1D1002FA7
:103D8800E4D00130ACEB020201327146304437F026
:103D9800A6F8EF1BBDB20027D8E7F8BD704700BFF3
:103DA800FBDF0500F0B583B01546002301930378C7
:103DB8002D2B19D0044637F091F90646104F0023F1
:103DC800C3510A4601A9204621F054FCF359222B7D
:103DD80010D023B9019BA34201D01B7843B16FF0E7
:103DE80015032B60002003E06FF01503136000201B
:103DF80003B0F0BD6FF021032B600020F8E700BF8F
:103E08000C00000070B484460020064605E0002B34
:103E18000DDD15E00126013080B213FB00F411FA24
:103E280084F4A4B20CB9002B0ADB9442EFD01CF83E
:103E38000440044D2C5D14F0070FEBD1002EEAD09E
:103E480070BC7047FBDF050008B58368D3F874328F
:103E580013F0200F00D108BD0249406924F06BFA25
:103E6800F9E700BF38B6040008B58368D3F87432A0
:103E780013F0200F00D108BD0249406924F05BFA15
:103E8800F9E700BF3CB6040008B58368D3F874327C
:103E980013F0200F00D108BD0249406924F04BFA05
:103EA800F9E700BF44B60400082915D814D008B5AE
:103EB800836893F83F208A4207D083F83F108368CD
:103EC800D3F8743213F0200F00D108BD0A46034915
:103ED800406924F030FAF8E7704700BFC0C6040014
:103EE80008B50A1E09DD4123002A0ADB8168D1F8DA
:103EF800741211F0200F06D108BD002AFCD042230D
:103F0800F2E75242F2E70249406924F014FAF3E773
:103F1800CCC6040008B50A1E09DD4323002A0ADBC3
:103F28008168D1F8741211F0200F06D108BD002A5B
:103F3800FCD04423F2E75242F2E70249406924F0F8
:103F4800FAF9F3E7CCC6040010B504460A468368BC
:103F5800B3F85210481CA3F852000B4483F85620BB
:103F6800A368D3F8741211F0020F0DD0D3F874328D
:103F780013F0040F00D02A220649606924F0DBF907
:103F8800204624F03DFA00B910BD0349606924F0C9
:103F9800D2F9F9E7D0C6040014D1040010B50446DC
:103FA80024F02EFA18B9204624F0D3F918B10249A2
:103FB800606924F0C0F910BD14D10400F8B50546B5
:103FC8008468B4F85020B4F8521004F1300024F09A
:103FD80009F9A78EE68E284624F0BBF970B9B742D6
:103FE80011D0E18EA38EC91A2846FFF779FF218EDA
:103FF800638EC91A2846FFF78DFFF8BD0549686921
:1040080024F099F9EBE7218E638EC91A2846FFF749
:1040180081FFF2E714D104002DE9F84305468468CE
:1040280014F1560006D0FCF707F986B294F83C70F4
:1040380000231BE00026F9E71C44224492F856901E
:104048004FF0000882F85680AA6850331A440632A6
:104058000F49686924F06FF9AB68234483F85690D8
:10406800AB685B8FDB1BF61A23464746AA68548F5A
:10407800E41BB442E0DB002E01DCBDE8F8835033DA
:104088001A4406320349686924F055F9F5E700BF78
:10409800DCBB040070EE0400082921D808B5836849
:1040A80093F83E208A4209D083F83E1008290CD0A4
:1040B8008368D3F8743213F0200F00D108BD0A4684
:1040C8000849406924F037F9F8E78368D3F874326F
:1040D80013F0200FF2D00449406924F02CF9EDE7E1
:1040E800704700BFD4C6040048B604008168B1F820
:1040F8005020002A46D070B50546B1F85230002B42
:104108003FD04F330B44063301F1560C002402E034
:104118000134A4B2013B634502D319782029F7D0B2
:10412800634506D31978202903D00134A4B2013B92
:10413800F6E75E1C611C121B1944304636F0CFFEB0
:10414800AA68B2F850301B1BA2F85030AB68B3F81D
:1041580050201344002283F85620614209B22846B1
:1041680024F069F92846FFF76FFE3346064A08210E
:10417800284624F056FA2846FFF776FE2846FFF729
:1041880083FE70BD704700BF70EE0400F8B50446AA
:104198000E4617466AB9A068D0F8743213F0040FB7
:1041A80027D0B0F85230503318440630FCF744F8A2
:1041B80007E0FFF759FEEEE71349606924F0BBF802
:1041C8002846451E0028F7D1A368B3F85020A3F865
:1041D8005220204624F0BDF828B107B11EB10B4982
:1041E800606924F0A8F8714209B2204624F023F946
:1041F800F8BDB0F85230503303440633044A08215E
:10420800204624F00EFADFE754D4040014D1040049
:1042180070EE040008B58368024A022124F001FA0E
:1042280008BD00BF70EE0400002979D02DE9F843DD
:10423800804616460D460BB9002404E01146FFF7E8
:1042480069FEF9E701342B5D364AD35C13F0080F99
:10425800F8D156E0D8F8140023F06FFF3A46291930
:10426800404624F089F909F101042F49D8F81400CF
:1042780024F026FC31464046FFF74CFE2919D8F8B1
:10428800140024F01DFC2849D8F8140024F018FC68
:10429800BDE8F88300278742F0D204EB070915F838
:1042A80009300A2BD6D00137F5E79A1996450DD96A
:1042B8000133E218A95C1B4A12F801C01CF0080F70
:1042C800F3D00A2901D01F46EFE71F46D8F814009B
:1042D80023F033FF3A462919404624F04DF93C446F
:1042E80000E001342B5D0F4AD35C13F0080FF8D1BE
:1042F8000D49D8F8140024F0E3FB31464046FFF797
:1043080009FE2846FBF798FF80B2001BD8F8083052
:10431800B3F83AE0AEEB06078742BBD20023C8E702
:10432800704700BFFBDF050014D1040021B370B54E
:1043380082B004461D46931D9EB20B46097809B902
:1043480002B070BD019300920C4B0D4A082124F075
:1043580068F965B1094B0B4A0821204624F061F938
:104368000023324629462046FFF75EFFE8E7064964
:10437800606924F0A5FBE3E7704700BF1CC7040091
:10438800FCC6040044BA040014D10400F0B583B09C
:1043980005460E460F68AFB13846FBF74DFF84B2AD
:1043A8000334A4B2084B00933B46084A0821284628
:1043B80024F037F90023224671682846FFF734FFB6
:1043C80003B0F0BD0024EBE718C7040004C70400DD
:1043D80010B504460749FBF71DFF30B106492046D2
:1043E800FBF718FF18B1002010BD0120FCE70120E1
:1043F800FAE700BF0CC7040010C7040010B5044654
:104408008368D3F8743213F0200F07D1A368D3F868
:10441800743213F0200F06D1002010BD0449406902
:1044280024F09BFBF2E70349606924F096FBF3E76D
:1044380050B6040058B6040008B58368D3F874323F
:1044480013F0200F00D108BD0249406924F085FB14
:10445800F9E700BF60B6040008B58368D3F8743282
:1044680013F0200F00D108BD0249406924F075FB04
:10447800F9E700BF64B6040010B504468368D3F8B2
:10448800743213F0200F07D1A36850225A87A3680B
:1044980018221A87002010BD0249406924F05DFBEC
:1044A800F2E700BF68B6040008B583691A680249D4
:1044B80023F0C0FD002008BD20C7040070B582B0FD
:1044C80006460B4923F0B6FD0A4C00220AE0551CAB
:1044D800ADB2636A0093A3680749304623F0AAFD8A
:1044E80030342A46054B9C42F1D3002002B070BDFF
:1044F80030C70400E4B4040048C7040014B504003D
:1045080000B583B002290DD08368D3F8743213F054
:10451800020F11D0094A0A4923F08CFD002003B08C
:104528005DF804FB53680093064B1268064923F0B4
:104538009FFD6FF01500F2E7044AECE70CD4040085
:1045480084C7040060C7040078C704005CC704007F
:1045580008B5024923F09BFD002008BDFCBD0400FE
:1045680070B582B00446002509E06E1CA36803F507
:10457800AB732A460B49204623F05CFD3546A268FA
:104588000DF1060302F5AB720121E06824F0DFFBB0
:10459800BDF80630002BE8D1A368002083F8560147
:1045A80002B070BD98C704002DE9F04383B00446FB
:1045B8000E46154600278DF803700F801780806817
:1045C8004FF48072394600F5AB7036F0A2FC4849CA
:1045D800606924F0C2FA606923F0AFFDB846B8F507
:1045E8007A7F15D36FF073007BE04FF47A7035F063
:1045F80023FE08F101081FFA88F8F0E7522B1DD0B6
:10460800A2683A4482F856310137BFB2092F62D8FE
:1046180060680368D3F8109001AB01220DF1030123
:10462800C847019B002BE0D09DF803301B2BE5D039
:10463800A26892F856211B2AE0D0E9E7A3683B4418
:10464800002283F85621A36893F857215B2A15D1D5
:104658000222A368134493F856113B2914D02B88DF
:1046680003EB83035B009BB2013292B20B44303BF5
:104678002B80FF2AEDD96FF0790032E0002283F811
:1046880056216FF004002CE0013292B2FF2A2BD899
:10469800A368134493F8561171B1338803EB83036D
:1046A8005B009BB2013292B20B44303B3380FF2A4D
:1046B800EED96FF0790014E03388FA2B01D9FA2388
:1046C80033802B88FA2B01D9FA232B80A36800208A
:1046D80083F8560105E0A368002283F856216FF09D
:1046E8000B0003B0BDE8F0836FF00400F9E700BFEA
:1046F800E4C7040010B582B00446012904D124F0AF
:10470800D0FA58B902B010BD536800930A4B12682A
:104718000A4923F0ADFC6FF01500F3E7A3685022B7
:104728005A87A36818221A870549204623F091FC66
:104738006FF00700E6E700BF60C7040078C7040011
:10474800A4C7040010B5044623F0E7FC0246034959
:10475800204623F06FFC002010BD00BFE0C7040016
:104768002DE9F04786B081460F4616464FF00008FF
:10477800414602250DE033461C4A0321484623F0F2
:1047880050FFB8F1000F27D1284606B0BDE8F087E2
:1047980021464C1C01AA3846FFF78AFA82460028AF
:1047A800EFD00022DAF80010304624F0AFFE0028DF
:1047B800EED1D9F808003346DAF8002000F15401A8
:1047C80000F5AB7024F06DFB05460128D3D0002816
:1047D800D7D108F10108DBE7D9F80800324600F123
:1047E800540100F5AB7023F019FDCDE7B0CF0400FC
:1047F80070B545680669286835F024FD00B3686817
:1048080050B135F01FFD002840D04FF40031281D6D
:1048180024F001FC041E21DBE86858B135F012FDD4
:10482800002836D04FF4B01105F10C0024F0F3FB4A
:10483800041E1FDB304635F0DFFD0024204670BD26
:10484800154B1B6813F0070F02D16FF01204F5E740
:10485800124A0121104822F092FEF6E70E4B1B681F
:1048680013F0070FEAD023460D4A01210A4822F027
:1048780090FEE3E7084B1B6813F0070FDED02346D2
:10488800084A0121044822F084FED7E76FF0120499
:10489800D4E76FF01204D1E7ECCD002004D0040077
:1048A8001CD0040048D0040008B5034821F08AFF52
:1048B800024821F087FF08BDB0D00400E8D004000A
:1048C8002DE9F04182B000AF04465C4B1B6813F041
:1048D800070F43D0D0F800E0D0F804C086686D46D2
:1048E8008AB06B4613F1100200F08E8014218AB151
:1048F8000846042903DDDFF84881C3F81480082836
:1049080001DDC3F818E00C2801DDC3F81CC010282D
:1049180000DD1E6213297ADD4FF0140C3AB105212F
:10492800397100217971B971F971786818610021BC
:104938006FF300016FF341016FF382016FF3C5015B
:10494800012363F38811CCF30A0C6CF353216FF342
:104958001F5100233948FDF7D1F8AD46374B1B6886
:1049680013F0070F42D0D4F80CE0D4F810C06669F1
:104978006D468AB06B4613F110024BD014218AB1F0
:104988000846042903DDDFF8BC80C3F81480082832
:1049980001DDC3F818E00C2801DDC3F81CC010289D
:1049A80000DD1E62132938DD4FF0140C3AB10521E1
:1049B800397100217971B971F9717868186100212C
:1049C8006FF300016FF341016FF382016FF3C501CB
:1049D800012363F38811CCF30A0C6CF353216FF3B2
:1049E8001F5100231548FDF789F8AD46134B1B6886
:1049F80013F0070F14D1114B1B6813F0070F16D1D2
:104A08000837BD46BDE8F0816FF000416FE76FF0F1
:104A18001B0C83E76FF00041B1E76FF01B0CC5E793
:104A2800E369094A0121054822F0B3FDE3E7A369D8
:104A3800064A0121014822F0ACFDE1E7FCCD002047
:104A480018D1040048D1040078D1040088D10400AA
:104A580038B504460D4611B10846FFF731FF012C61
:104A680004D0294620461FF0CBF838BDEFF3058364
:104A7800103B054A126812F0070FF2D0034A0121D1
:104A8800014822F086FDECE7FCCD0020B8D10400F7
:104A980030BFFFF7FDBF00BF38B50446054D2A46B5
:104AA800054936F00FFA054A0021601936F031FA47
:104AB80038BD00BF000000001CB60400080000005C
:104AC80070B50646064D074B1D444C1B2046FFF7A4
:104AD800E3FF083CC6F8A84005F1080070BD00BF18
:104AE8000000000008000000074B9B6893F90E20A7
:104AF800002A08DB044A5269934204D0034A5368E7
:104B080043F08053536070474CA2012000ED00E051
:104B180081690D4B5A6942F480725A61BFF34F8F15
:104B2800BFF36F8F31F8021C5A6922F480725A6100
:104B3800BFF34F8FBFF36F8F4DF60273994201D0C9
:104B4800002070470120704700ED00E0F8B51D46D1
:104B580000232B7002F07F43B3F17F4F28D1064624
:104B68000F46144612F0010F24D112F0400F13D053
:104B7800114B1B6813F0070F05D114F0040F08D070
:104B8800384601230AE00D4A01210B4822F0F7FCC0
:104B9800F3E73046012301E0002003464BB914F047
:104BA800080F01D0384604E0304601232B7000E09E
:104BB8000020F8BD0020FCE7FCCD0020CCD104008B
:104BC80008B5494B1B6813F0070F0BD1474B9B6A7D
:104BD80013F0007F13D0444B1B6813F0070F07D165
:104BE8001E200DE0424A01213F4822F0C8FCEDE7B3
:104BF800404A01213C4822F0C2FC1E2000E01D2052
:104C08003A4B9B6A13F0807F05D0374B1B6813F033
:104C1800070F3FD11F20354B9B6A13F4801F05D027
:104C2800314B1B6813F0070F3BD102202F4B9B6AB7
:104C380013F4002F05D02C4B1B6813F0070F37D146
:104C480021202A4B9B6A13F4802F05D0264B1B6822
:104C580013F0070F33D12220244B9B6A13F4003F33
:104C680005D0214B1B6813F0070F2FD123201F4BB2
:104C78009B6A13F4803F05D01B4B1B6813F0070F8A
:104C88002BD12420194A936A6FEA03436FEA13432E
:104C9800936208BD184A0121134822F070FC1F20B6
:104CA800B9E7164A0121104822F069FC0220BDE745
:104CB800134A01210C4822F062FC2120C1E7114A65
:104CC8000121094822F05BFC2220C5E70E4A012198
:104CD800054822F054FC2320C9E70C4A0121024868
:104CE80022F04DFC2420CDE7FCCD002000ED00E0B3
:104CF800F0D1040008D204001CD2040038D2040009
:104D080064D2040084D20400ACD20400C8D20400E7
:104D180008B500230B70064B1B6813F0070F00D172
:104D280008BD044A0121024822F029FCF8E700BF27
:104D3800FCCD0020F4D20400354B1B6813F0070F9C
:104D480064D0B0B582B000AF0F2924DC314D1039E2
:104D58006C4600233B7102237B718AB0EC461CF140
:104D680010021AD0122022B1042802DD2A4BCCF8F6
:104D7800143000233B7002237B70E2B103460828FD
:104D880001DDCCF818500C2B01DDCCF81C100CF10F
:104D9800200300210DE0214DD9E76FF00040E2E744
:104DA80001F1080505EB070E1EF808EC03F801EB06
:104DB80001310129F4D9112825DD12234AB1042132
:104DC800397100217971B9710121F9717868CCF8CC
:104DD800100000216FF300016FF341016FF38201AE
:104DE8006FF3C501012060F38811C3F30A0363F36D
:104DF80053216FF31F5100230548FCF77FFEA5469A
:104E08000837BD46B0BD6FF01B03D7E7704700BF3A
:104E1800FCCD002018D304004CD3040030D3040088
:104E2800F8B506460F4615464F4B1B6813F0070F9B
:104E38000BD14E4B9B6A13F0100F13D04A4B1B68D3
:104E480013F0070F07D111240DE0494A0121464804
:104E580022F095FBEDE7474A0121434822F08FFBFA
:104E6800112400E01024414B9B6A13F0080F05D071
:104E78003D4B1B6813F0070F1ED112243B4B9B6A56
:104E880013F0020F2CD0384B1B6813F0070F1AD100
:104E9800364A536B926A12F0800F20D0324A126859
:104EA80012F0070F15D1002F4DD0304A936A23F026
:104EB80080039362132413E02F4A01212A4822F029
:104EC8005EFB1224DAE72D4A0121274822F057FB1E
:104ED800DEE72B4A0121244822F05BFBE3E7132499
:104EE800224B9B6A13F0010F05D01F4B1B6813F070
:104EF800070F2AD114241D4B9B6A13F0200F05D0ED
:104F0800194B1B6813F0070F26D11524174B9B6A02
:104F180013F0100F01D1154B9B6A144B9B6A13F0C9
:104F2800200F04D0114A536A23F4005353620F4AE6
:104F3800936A43F0FF0393620121304624F094F909
:104F480028702046F8BD1324CAE70E4A01210648F6
:104F580022F015FB1424CEE70B4A0121024822F067
:104F68000EFB1524D2E700BFFCCD002000ED00E0C9
:104F780060D3040078D30400ACD30400C0D3040089
:104F8800D8D30400F0D3040010D40400F8B50646C2
:104F98000F461546504B1B6813F0070F0BD14F4BAC
:104FA8009B6A13F4805F13D04B4B1B6813F0070FF9
:104FB80007D117240DE04A4A0121474822F0DFFAB9
:104FC800EDE7484A0121444822F0D9FA172400E0C5
:104FD8001624424B9B6A13F4006F05D03E4B1B68A6
:104FE80013F0070F1ED118243C4B9B6A13F4007F63
:104FF8002CD0394B1B6813F0070F1AD1374A936B23
:10500800926A12F4004F20D0334A126812F0070F48
:1050180015D1002F3CD0314A936A23F400439362A0
:10502800192413E0304A01212B4822F0A8FA182449
:10503800DAE72E4A0121284822F0A1FADEE72C4AB5
:105048000121254822F0A5FAE3E71924234B9B6A9E
:1050580013F4806F05D0204B1B6813F0070F19D18C
:105068001A241E4B9B6A13F4807F21D01A4B1B68AD
:1050780013F0070F15D11B24184A936A43F47F4392
:1050880093620121304624F0EFF828702046F8BDDD
:105098001924DBE7174A01210F4822F070FA1A2475
:1050A800DFE7154A01210C4822F069FA1B24E3E7DF
:1050B8000A4B9B6A13F4005FDED0074B1B6813F0A2
:1050C800070F01D11C24D7E70C4A0121024822F01E
:1050D80056FA1C24D0E700BFFCCD002000ED00E00C
:1050E80040D4040058D40400ACD304006CD40400A9
:1050F80088D40400A0D40400BCD4040010D4040054
:1051080070B506460D46384B1B6813F0070F0CD1D7
:1051180000232B70354BDC6A14F0020412D0324B9A
:10512800186810F0070006D170BD314A01212E48D9
:1051380022F025FAECE72F4A0121184622F01FFA3F
:105148000020F1E7294BDB6A002B14DB274BD86AD8
:1051580010F08040E8D0244B1B6813F0070F16D1DD
:105168003046FFF7D5FCF8B11F4B1B6813F0070F4B
:1051780013D13068D8E71C4B186810F00700D3D05B
:105188001D4A0121184622F0FAF92046CCE71B4AAD
:105198000121154822F0F3F9E2E73368184A0121A2
:1051A800114822F0F6F9E4E7104B9B6A13F0FF0F61
:1051B8000DD10E4B986A10F47F400ED10B4B9B6AB1
:1051C800B3F5803FB0D33046FFF7FAFCACE72A4688
:1051D80001213046FFF724FEA6E72A460121304682
:1051E800FFF7D4FEA0E700BFFCCD002000ED00E0F3
:1051F800D4D40400ECD4040010D5040020D5040055
:1052080040D5040030B58BB0204B5D68C5F3080568
:10521800002383F31188BFF36F8F0DF12603FFF787
:1052280095FC04461A4B18600DF12702294624F014
:105238001DF89DF827300BB10BB030BD05460DF1B8
:10524800040C20686168A268E368ACE80F00206974
:105258006169A269E369ACE80F009DF826304BB19B
:10526800089BC3F308025AB96FEA53236FEA432332
:10527800089305E0089B23F4FF7323F001030893C8
:1052880001A92846FFF7E4FBD6E700BF00ED00E0E0
:10529800B81E0120064B5A6942F010025A615A6939
:1052A80042F480625A615A6922F008025A617047D2
:1052B80000ED00E0EFF30880EFF3098101B57246D5
:1052C800FFF7A0FF01BD00BF002080F31488BFF3E3
:1052D8006F8F002080F30A8880F30B8825F06FFB1E
:1052E800002011490860BFF34F8F104880F30888E9
:1052F80000F034F8202080F311880D484FF0AA01FF
:105308004FF4006234F0CEFF09484FF400614018B2
:1053180080F30988EFF314800221084380F314888E
:10532800BFF36F8F00F018F994ED00E098D60120D4
:10533800E8AD0120084BD3F89000C0F30720002304
:1053480006E0054AC2F898300021C2F8A0100133DF
:105358008342F6DB704700BF00ED00E010B572B67F
:10536800002484F31388FFF7E5FF234608E003F1E0
:1053780020010E4A4FF0FF3042F821000133DBB222
:105388000F2BF4D9002308E003F16001074A4FF01E
:10539800FF3042F821000133DBB20F2BF4D962B69B
:1053A800BFF34F8FBFF36F8F10BD00BF00E100E068
:1053B80008B50A4B9B68834202D035F026FA08BD2F
:1053C800EFF30583002BF8D0054B5A6842F0805262
:1053D8005A605A6A22F400425A62EEE74CA201204F
:1053E80000ED00E00A4A9368C3F8AC006FF00A01C8
:1053F800C3F8B01007494B6843F080534B60002353
:1054080083F31188BFF36F8F9368D3F8B0007047A8
:105418004CA2012000ED00E0114A936883F8B50022
:10542800EFF31183202383F31288BFF36F8F53693F
:1054380093600C4A4FF000615160D3F8A8100A4AF3
:10544800116020F0FF0093F8B5201043D3F8AC208A
:105458000021C3F8AC1082F31188BFF36F8F704737
:105468004CA2012000ED00E0701E012010498A685E
:1054780082F8B5E04FF030001044EFF3098C80E873
:10548800F01F74467046FFF7C7FFA64608498A68AA
:10549800864602F1300090E8F01F8CF3098802F18B
:1054A800000004B523F01FFFBDE80440704700006A
:1054B8004CA201201EF0040F0CBFEFF30880EFF39D
:1054C8000980816911F8021C0229FFD001B523F077
:1054D800BFFE01BD002807DB00F01F0240090123C1
:1054E8009340024A42F82030704700BF00E100E0D4
:1054F80000280CDB00F01F024009012393402030F4
:10550800034A42F82030BFF34F8FBFF36F8F7047C5
:1055180000E100E0002808DB4901C9B200F1604061
:1055280000F5614080F80013704700F00F00490152
:10553800C9B2014B1954704714ED00E04209054BFC
:1055480053F8222000F01F00012303FA00F0104056
:10555800704700BF00E100E008B50B4B0B4A22F092
:105568007F029A60BFF34F8FBFF36F8FD3F8882005
:1055780022F47002C3F888201EF004FD1FF004FC1A
:1055880000F058F81EF05AFD00ED00E000000100A0
:1055980010B4A2F12004104942F8081C21F00101BE
:1055A80042F8081C42F8203C019B42F81C3C029B34
:1055B80042F8183C039B42F8143C4FF0807342F8C1
:1055C800043C04650023C0F8AC30C0F8B430BC23F8
:1055D80080F8B53010BC70475D12010000B50E466A
:1055E80015460D4B9860D0F8A8200C4B1A60D0F8DF
:1055F800983083F30B882C4686F309884FF0000017
:10560800074B984720464FF000014FF000024FF03B
:105618000003044C204700BF4CA20120701E01204B
:10562800F99203005D120100014B10221A617047C4
:1056380000ED00E0002206E003F00F0309491944D9
:1056480020230B760132402A0ADC53B2002BF3DB0D
:1056580003F1604303F56143202183F80013F1E768
:10566800704700BFFCEC00E008B5EFF30583103B82
:10567800044A02EBC301496852F833008847FFF730
:1056880033FA08BD24B2040070B582B00346164A46
:1056980092E8030000908DF8041013B31D46134CD4
:1056A800442632460021204635F033FC2B6823601F
:1056B8006B686360AB68A360EB68E3602B69236188
:1056C8006B696361AB69A361EB69E361084B1B68B4
:1056D80023620521684600F03FFD3146204600F070
:1056E8003BFD02B070BD00BF70B60400741E0120FF
:1056F800B81E012010B584B00A4C23460A4A01217D
:105708000A4823F0F0FE0023019302930393084B09
:105718000193E41A0294012101A823F0E8FE04B0E1
:1057280010BD00BF0000042080C500205CD5040027
:1057380068CE0020024B034AC3F8C020704700BF60
:1057480000ED00E0AAFF4400034BC3F89800C3F83B
:105758009C10C3F8A020704700ED00E00E4BC3F882
:105768009800C3F89800D3F89C000A7A60F3040202
:105778000A72D3F8A020C2F34202087A62F34710F3
:105788000872D3F89C2022F01F020A60D3F8A030D8
:1057980023F01F03CB60704700ED00E070B50546AD
:1057A8000E46002400E00134A6421EDD04EB44034B
:1057B8009A0005EB830359680029F4D0A85823F010
:1057C800ECFD04EB84030B4A42F8230010F1160F9A
:1057D8000CD0094B1B78984209DA04EB840302EBDE
:1057E80083010431FFF7BAFFDDE7002070BD6FF0D9
:1057F8001500FBE7BC1E0120BFA2012010B504461E
:105808000D4BD3F89030C3F30723013B984203D8DC
:1058180023F09DFD204610BD084B1B6813F0070FB1
:1058280002D16FF01500F6E70346054A0121034847
:1058380021F0AFFEF5E700BF00ED00E0F4CD002059
:105848006CD504002DE9F04F87B081460091019393
:105858001446002654E0684B1B6813F0070F02D16A
:105868006FF015040DE03346644A0121624821F0C7
:1058780090FEF5E7604B1B6813F0070F05D16FF03A
:105888001504204607B0BDE8F08F3B465C4A01216D
:10589800594821F07EFEF2E7D84564D12946C0B2C6
:1058A80023F08CFD2BE0574AC2F89870D2F89C3050
:1058B80003F01F0321F01F010B43C2F89C30294657
:1058C800E0B223F07BFD044610F1160FD9D0013465
:1058D80015E0013B4B49C1F89870D1F8A02002F0BF
:1058E8001F0223F01F031343C1F8A0302946E0B27A
:1058F80023F064FD044610F1160FC2D001340136BE
:10590800009B9E42BDDA06EB46054FEA850A09EB85
:1059180085056F68002FF2D0019B23B1284623F03C
:105928002AFD002897D0394659F80A0023F035FD9A
:10593800074610F1160F9DD084429BDD314BC3F80A
:105948009800D3F89C2022F01F02C3F89800D3F8DF
:10595800A03043F01F0859F80A306968194401F16A
:10596800FF3B9A4298D09A429DD0D845B1D0013B8E
:105978002449C1F89870D1F8A02002F01F0223F042
:105988001F031343C1F8A0302946E0B223F016FDE7
:10599800044610F1160F3FF474AF0130194BC3F8E9
:1059A8009870D3F89C109DF8102061F304028DF8CC
:1059B8001020D3F8A030C3F34203D2B263F34712E6
:1059C8008DF8102059F80A306A681344029323F0BE
:1059D8001F03A8EB0B084344013B23F01F03059367
:1059E80002A9C0B2FFF70AFF044610F1160F3FF4F0
:1059F80048AF013483E700BFF4CD002094D50400FC
:105A0800B8D5040000ED00E010B5034C012322785E
:105A1800FFF718FF207010BDBFA20120044B05221C
:105A2800C3F89420BFF34F8FBFF36F8F704700BF49
:105A380000ED00E0BFF35F8F024B0022C3F8942013
:105A4800704700BF00ED00E038B51C4B1D681C4BCB
:105A5800D3F89030C3F307239D422BD8FFF7EAFF12
:105A6800FFF768FE002407E0144B596801EB0411A6
:105A7800204623F06CFC0134A542F5D81148057086
:105A880023F0BBFC10F1160F13D00E4B1A780C4BF9
:105A9800D3F89030C3F307239A4207DA084BC3F8C8
:105AA80098200021C3F8A0100132F0E7FFF7B6FFF5
:105AB800002038BD4FF0FF30FBE700BFDCD5040005
:105AC80000ED00E0BFA2012008B5024B1B68984713
