:020000040000FA
:10000000F80B0020D9080000CD090000EBAA000081
:1000100015AB00003FAB000093AB000069AB0000E4
:100020000000000000000000000000000D6500005E
:10003000CD09000000000000CD090000CD0900003E
:10004000000000000000000000000000C57B000070
:1000500000000000CD0900000000000000000000CA
:10006000CD090000CD090000CD090000CD09000038
:1000700000000000CD090000CD090000CD090000FE
:10008000CD090000CD0900000000000000000000C4
:10009000CD090000CD0900000000000000000000B4
:1000A000CD0900000000000000000000CD090000A4
:1000B000CD090000CD090000CD090000CD090000E8
:1000C000CD090000CD090000CD090000CD090000D8
:1000D000CD09000000000000CD0900000000000074
:1000E000CD09000000000000CD0900000000000064
:1000F000CD0900000000000000000000000000002A
:1001000000000000CD090000000000000000000019
:1001100000000000000000000000000000000000DF
:1001200000000000CD0900000000000000000000F9
:1001300000000000000000000000000000000000BF
:10014000CD09000000015F5F02000000FE0B00000F
:10015000E1650000800600000000000000000000D3
:100160000000000000000000000000000100FFC3CC
:10017000000000C4402200200000000001015F5F79
:10018000030100001F010000210200000000000028
:10019000000000000100000001000000000000005D
:1001A000000000000000000000000000000000004F
:1001B000000000007000000034B00000800000006B
:1001C000000F0000010000001D03000001015F5F3F
:1001D000040100001F010000C9070000000000002A
:1001E000000000000000000001000000000000000E
:1001F00000000000000000000000000000000000FF
:100200000000000040B000004000000005070000B2
:08021000010000008D07000051
:1002200010B500F075F900B110BD00F09FF904465B
:10023000074821460AF0ABFE00F0A6F90028F3D1EA
:10024000214604480AF0A3FEBDE8104008F0D6BCE1
:10025000D807000000080000002310B582B0114646
:10026000CDE90033D0E90023402B4AD1138D8446D9
:100270004FEA132EBEF1030F3FD0BEF1010F10D095
:10028000244C1068D4F80424AEF10203CDE9000236
:10029000082B39D8DFE803F00E3113181D22272C64
:1002A000090000F05FF902B010BD60466A4600F038
:1002B00079F9F8E760466A4600F050F9F3E76046DE
:1002C0006A4600F037F9EEE760466A4600F02AF920
:1002D000E9E760466A4600F031F9E4E760466A46BD
:1002E00000F030F9DFE760466A4600F02FF9DAE700
:1002F00060466A4600F02EF9D5E7604600F016F930
:10030000D1E76FF08000CEE703480AF040FE6FF0BF
:100310008500C8E7201C00203C0800002DE9F04FB4
:100320000468A3B0002C40F0E3800546202221465B
:1003300002A80AF0EEFC202221460AA80AF0E9FCF5
:100340004022214612A80AF0E4FCEA6905F11C0BE0
:100350005B46042662B9032153F8042D4E1E32B9C0
:1003600036B1314653F8042D4E1E002AF8D00E4601
:10037000EA6A042705F12C0362B9032153F8042D1E
:100380004F1E32B937B1394653F8042D4F1E002A9B
:10039000F8D00F46002E00F0A680402300216868A8
:1003A00012AA0AF029FD402840F09D8012AB012ED0
:1003B000CDE9023000F09A804FF00108534C0DF166
:1003C000080905F1100A01975AF8043FD4F800040F
:1003D000D91C21F003011A1D04EB000701EB000CEE
:1003E000C0F5806E60D871455ED8414668683A466F
:1003F000C4F800C40AF000FD08F101084645C9F838
:100400000C0049F8087FDFD1019F002F73D0D4F88A
:1004100000040DF12808DC460BEB870A4146024632
:100420004FF00009AB4601905CF8040FC2F5806EF6
:10043000C31C10F1040F23F0030304EB020543D89F
:10044000734541D8D445C1E900504FF001091A4421
:1004500001F10801E8D1DBF808303146C4F8002486
:10046000C4F804340AAA3B4602A8FFF7F5FE5D462D
:10047000002681463146D8F80430686858F8082BC1
:1004800001360AF0D8FCB742F4D10025D4F8002494
:1004900029461E48C4F804540AF03BFCC4F8005432
:1004A000484623B0BDE8F08F002102461748C4F843
:1004B00004140AF02EFC6FF08C0900234846C4F89F
:1004C000003423B0BDE8F08F0198B9F1000F02D0DD
:1004D0001046C4F80024002102460C48C4F8041455
:1004E0000AF017FCE7E76FF08309D9E7074C8CE7C0
:1004F0006FF08509D4E7AB683146C4F804340AAA22
:100500003B4602A8FFF7A8FE8146BEE7201C00205C
:1005100008B52822002102480AF0FBFB002008BD94
:10052000282000206FF08500704700BF6FF0850025
:10053000704700BF6FF08500704700BF6FF0850007
:10054000704700BF6FF08500704700BF6FF08500F7
:10055000704700BF6FF08500704700BF6FF08500E7
:10056000704700BFD1E9000108F00ABB10B5044C88
:100570000F22204603490AF086FB204610BD00BF2B
:10058000542000206408000008B50121034808F049
:10059000DBF8034808F0A8FA002008BD502000202E
:1005A0008FAF00006FF08500704700BF80B500AFCF
:1005B00004F09AFE0023184680BD80B582B000AFDB
:1005C0007860FFF7F3FF034618460837BD4680BD45
:1005D00080B5AEB000AF78600023C7F8B430002318
:1005E000C7F8B03007F1940300221A605A6007F18F
:1005F0008C0300221A605A600023FB6407F1500349
:100600003C22002118460AF084FB0023FB6007F11E
:1006100010033C22002118460AF07BFB0023BB603C
:100620000123C7F8A4300023C7F8A0300423C7F87B
:10063000AC300423C7F8A83004E0D7F8AC30013B55
:10064000C7F8AC30D7F8AC30002B0ED0D7F8AC30B0
:100650005A1E7B68043253F82230002BEDD004E0A0
:10066000D7F8A830013BC7F8A830D7F8A830002B3E
:1006700008D0D7F8A8305A1E7B68083253F82230C9
:10068000002BEDD0D7F8AC30002B07D0D7F8AC302A
:10069000022B03D8D7F8A830012B01D9012371E030
:1006A0007B68586807F10802042300210AF0A4FBC4
:1006B0000346C7F8A030D7F8A030042B02D06FF063
:1006C00080035FE0D7F8AC30012B2BD97B685B69E6
:1006D000C7F89C30D7F89C30402B02D96FF08903C3
:1006E00050E07B6858687B685B6907F14C02012128
:1006F0000AF082FB0346C7F8A030D7F8A030D7F83D
:100700009C209A4202D06FF080033BE007F14C033B
:10071000C7F89430D7F89C30C7F8983007F19403A5
:10072000C7F8B430D7F8A830002B12D07B681B6A0A
:10073000402B02D96FF0800324E007F10C03C7F8C7
:100740008C307B681B6AC7F8903007F18C03C7F8C0
:10075000B030BB68D7F8B020D7F8B410184604F012
:100760001DFEC7F8A400D7F8B030002B08D07B6876
:100770005868D7F88C20D7F8903000210AF05BFB3E
:10078000D7F8A4301846B837BD4680BD80B582B0D2
:1007900000AF78607B681B68B3F57D7F04D040F2C2
:1007A000F532934205D009E07868FFF706FF03466B
:1007B00006E07868FFF70CFF034601E06FF0850361
:1007C00018460837BD4680BD80B400AF00231846E8
:1007D000BD4680BC704700005B4442475D5B43728E
:1007E0007970746F5D20496E6974201B5B303B33F8
:1007F000326D25731B5B306D2E2E2E0D0A0000000E
:100800005B4442475D5B43727970746F5D20496E53
:100810006974201B5B303B33326D25731B5B306D7D
:100820002E2E2E201B5B303B33326D636F6D706C50
:100830006574651B5B306D2E0D0A00005B455252DE
:100840005D5B43727970746F5D20556E7375707067
:100850006F727465642072657175657374210D0A19
:10086000000000004D62656420544C5320332E3646
:100870002E31000000000000000000000000000019
:10088000887A000001000000E9820000C1820000B7
:1008900040FC0000802000204D00000040FC0000D3
:1008A000201C00200000000040FC0000001C002074
:1008B00000000000B4210020C4050000201C00201E
:1008C00018010000001C00200800000080B500AFE7
:1008D00006F092FC00BF80BD80B588B000AF72B654
:1008E00000BF314B314A9A60314B3B603B6883F328
:1008F000098800BF2F4B7B607B6883F30A8800BFA9
:100900002C4BBB60BB6883F30B8800BF2A4BFB609A
:10091000F96823A3D3E90023C1E9002300BF00F055
:10092000C5F9264BFB6119E00023BB610EE0FB69B2
:100930001A68BB699B001A44FB695968BB699B0034
:100940000B4412681A60BB690133BB61FB699B6889
:10095000BA699A42EBD3FB690C33FB61FB69184A15
:100960009342E1D3174B7B6114E000233B6109E024
:100970007B691A683B699B00134400221A603B693B
:1009800001333B617B695B683A699A42F0D37B69CA
:1009900008337B617B690C4A9342E6D307F0B8FCCD
:1009A000A5EDF5FEA5EDF5FE00ED00E00000000070
:1009B000F80B002000040020F80B00209008000035
:1009C000B4080000B4080000CC080000EFF3088071
:1009D000EFF309812DE9F00F6B46724600F056FBEC
:1009E00008B0FFF773FFFEE700BF000080B400AF60
:1009F000BFF34F8F00BF064BDB6803F4E06204498E
:100A0000044B1343CB60BFF34F8F00BF00BFFDE724
:100A100000ED00E00400FA0580B483B000AF104B95
:100A20001B68C3F30B037B600E4B1B683B60BFF37B
:100A30004F8F00BF7B68092B0CD13B68012B03D083
:100A40003B68022B02D003E0012304E0012302E013
:100A5000012300E0002318460C37BD4680BC7047D8
:100A60003001FF003401FF0080B483B000AF104BB1
:100A70001B68C3F30B037B600E4B1B683B60BFF32B
:100A80004F8F00BF7B68092B0CD13B68012B03D033
:100A90003B68022B02D003E0012304E0012302E0C3
:100AA000012300E0002318460C37BD4680BC704788
:100AB0003001FF003401FF0080B483B000AF104B61
:100AC0001B68C3F30B037B600E4B1B683B60BFF3DB
:100AD0004F8F00BF7B68092B0CD13B68012B03D0E3
:100AE0003B68022B02D003E0012304E0002302E074
:100AF000002300E0002318460C37BD4680BC704739
:100B00003001FF003401FF0080B483B000AF104B10
:100B10001B68C3F30B037B600E4B1B683B60BFF38A
:100B20004F8F00BF7B68092B0CD13B68012B03D092
:100B30003B68022B02D003E0002304E0012302E023
:100B4000012300E0002318460C37BD4680BC7047E7
:100B50003001FF003401FF0080B483B000AF104BC0
:100B60001B68C3F30B037B600E4B1B683B60BFF33A
:100B70004F8F00BF7B68092B0CD13B68012B03D042
:100B80003B68022B02D003E0012304E0002302E0D3
:100B9000002300E0002318460C37BD4680BC704798
:100BA0003001FF003401FF0080B483B000AF104B70
:100BB0001B68C3F30B037B600E4B1B683B60BFF3EA
:100BC0004F8F00BF7B68092B0CD13B68012B03D0F2
:100BD0003B68022B02D003E0012304E0012302E082
:100BE000012300E0002318460C37BD4680BC704747
:100BF0003001FF003401FF0080B483B000AF144B1C
:100C00001B68C3F30B037B60124B1B683B60BFF395
:100C10004F8F00BF7B68092B14D13B68032B0DD08D
:100C20003B68032B0CD83B68012B03D03B68022B9D
:100C300002D005E0002306E0002304E0012302E0E7
:100C4000012300E0002318460C37BD4680BC7047E6
:100C50003001FF003401FF0080B500AFFFF7CCFF8B
:100C6000034683F00103DBB2002B16D10C4B1B684B
:100C70000C4A934201D15A2300E000230A4AC2F8E9
:100C8000103E074BDB6A074A934201D15A2300E02A
:100C90000023054AC2F8003E00E000BF80BD00BF4F
:100CA0000080FF00FA50FA500090035080B586B0E3
:100CB00000AF784B1B68774A43F002031360FFF7DD
:100CC000ABFE0346002B09D04FF050230022C3F89F
:100CD00014214FF050230022C3F81821FFF7ECFE37
:100CE0000346002B06D06C4B01221A606B4B01228D
:100CF000C3F87825FFF708FF0346002B03D0674BA6
:100D00000122C3F87825FFF727FF0346002B02D006
:100D1000634B0E221A60FFF747FF0346002B05D0F6
:100D2000604B00221A60604B01221A6000237B6135
:100D300011E04FF47F024FF47F017B69603351F87B
:100D4000333019467B696033DB0013445B680B600A
:100D50007B6901337B617B69FF2B0ED87B69DB00EC
:100D600003F57F0303F54073184602F035FE034692
:100D700083F00103DBB2002BDBD1EFF310837B6048
:100D80007B68012B0CBF01230023FB7400F0C6F825
:100D90000346002B04D100F08FF80346002B6AD0E5
:100DA000BFF34F8F00BF00BF404BD3F80034012B7F
:100DB000FAD13E4B0122C3F8042500BF3B4BD3F8C8
:100DC0000034012BFAD1FB7C83F00103DBB2002B52
:100DD00006D0FFF749FE0346002B01D072B600BFD4
:100DE00000F09CF80346002B12D0314BDB69FB600E
:100DF000FB6823F00103BB602D4ABB68D361BFF3DE
:100E00004F8F00BF00BF294BD3F80034012BFAD11C
:100E100000F052F80346002B14D0254B1B6AFB60F0
:100E2000FB6823F0FF0343F02003BB60204ABB684C
:100E30001362BFF34F8F00BF00BF1C4BD3F80034C9
:100E4000012BFAD1FB7C83F00103DBB2002B06D02F
:100E5000FFF70AFE0346002B01D062B600BF134B1A
:100E60000022C3F8042500BF104BD3F80034012B37
:100E7000FAD1FFF7BBFD0F4BD3F88C300D4A43F48A
:100E80004063C2F88C30FFF7E7FE00BF1837BD465D
:100E900080BD00BFD0ED00E0384A00500040005057
:100EA000E4AE03500C470050104700500090035030
:100EB0000080FF0000ED00E080B582B000AFEFF3EE
:100EC00010833B603B68012B0CBF01230023FB71A7
:100ED000FB7983F00103DBB2002B06D0FFF7C4FDE2
:100EE0000346002B01D072B600BF0B4802F074FD20
:100EF0000346BB71FB7983F00103DBB2002B06D004
:100F0000FFF7B2FD0346002B01D062B600BFBB79EC
:100F100018460837BD4680BD2080FF0080B584B0EC
:100F200000AFEFF310833B603B68012B0CBF012344
:100F30000023FB73FB7B83F00103DBB2002B06D0A5
:100F4000FFF792FD0346002B01D072B600BF104B95
:100F5000DB69BB60BFF34F8F00BFBB6803F00103C9
:100F6000002B14BF01230023FB71FB7B83F00103E3
:100F7000DBB2002B06D0FFF777FD0346002B01D034
:100F800062B600BFFB7918461037BD4680BD00BF72
:100F90000080FF0080B584B000AF78600023FB7351
:100FA0000E212A4802F0C7FD7B681B68033B042B17
:100FB0002BD801A252F823F0CD0F0000D70F00006C
:100FC000E50F0000F30F0000011000000C21204885
:100FD00002F0B1FD30E012211E4802F0ACFD012309
:100FE000FB7329E00B211C4802F0A5FD0123FB73D4
:100FF00022E00D21194802F09EFD0123FB731BE046
:101000000E21174802F097FD16E07B681B680F2B36
:1010100007D87B681B681A461421124806F0F2F8BC
:1010200007E07B681B68103B1A4625210E4806F036
:10103000E9F80123FB7300BFFB7B7968184602F0D7
:1010400066FD00BF1037BD4680BD00BF9C7C000020
:10105000AC7C0000B87C0000CC7C0000D87C000098
:10106000E87C0000F87C00000C7D000080B582B0B8
:1010700000AF78607C220449786809F004FE00BF64
:101080000837BD4680BD00BFDC28002080B586B093
:1010900000AFF860B9607A603B60394B7B61394BD7
:1010A0005B68C3F308027B691A60EFF303833B615B
:1010B0003A697B695A657B697A685A607B69FA6824
:1010C0009A607B69BA68DA607B6958687B6999685D
:1010D0007B69DB681A4602F0F2FC02467B691A6102
:1010E0007B6903F114007B691B692022194609F012
:1010F000CAFD3B68002B06D07B6934332022396857
:10110000184609F0C0FD1F4B9A6A7B699A651D4B12
:10111000DA6A7B69DA651B4B9A6B7B691A667B69B5
:101120009B6D03F400427B695A66164B5A6B7B69D0
:101130009A667B699B6D03F080027B69DA66114ACF
:101140007B699B6D93620F4A7B69DB6DD3620E4BAB
:101150005A697B691A670C4B9A697B695A677B6984
:101160001B6F03F040027B699A67074A7B691B6F1C
:1011700053617869FFF70EFF00BF1837BD4680BD89
:10118000DC28002000ED00E0D0ED00E080B584B068
:1011900000AF7860396000BF134BDB6A98470346A5
:1011A000DBB203F00103DBB2002BF5D10E4B5B6920
:1011B000396878689847F860FB68002B01D00023F5
:1011C0000EE000BF084BDB6A98470346DBB203F032
:1011D0000103DBB2002BF5D1034B1B6A9847034692
:1011E00018461037BD4680BD607D000080B582B0D6
:1011F00000AF284B9B680020984778607B68002BE5
:101200000DD00821244802F096FC0B21234802F05F
:1012100092FC60220221224805F0F4FFFEE71D4BFC
:101220001B690220984778607B68002B0DD008214D
:10123000194802F080FC0B21184802F07CFC632264
:101240000221174805F0DEFFFEE7124B9B6A4FF4C0
:10125000E1310120984778607B68002B0DD0082190
:101260000D4802F068FC0B210C4802F064FC672278
:1012700002210B4805F0C6FFFEE7064B9B6A0121E1
:1012800015209847074B01221A6000BF0837BD465A
:1012900080BD00BF607D0000347D0000407D000007
:1012A0003C7D00005829002080B487B000AFF86072
:1012B000B9607A6000237B6133E07B699B00BA6888
:1012C00013441B6803F07F033B613B697F2B02D112
:1012D0004FF0FF333B617B699B00BA6813441B6886
:1012E0001B0C032B1AD801A252F823F0FD120000A8
:1012F000051300000D13000015130000FB683A6988
:101300001A600BE0FB683A695A6007E0FB683A69CB
:101310009A6003E0FB683A69DA6000BF7B690133D9
:101320007B617A697B689A42C7D300BF00BF1C37D4
:10133000BD4680BC704700BF80B483B000AF074B90
:101340001B687B600023BA8862F30F03FA8862F39C
:101350001F4318460C37BD4680BC70474C7D0000CB
:1013600080B590B000AF7860396007F1080334228F
:101370000021184609F0CDFC4FF0FF33BB604FF061
:10138000FF33FB604FF0FF333B614FF0FF337B6176
:101390004FF0EB733B63072387F83A303B6899685B
:1013A0003B68DA6807F108031846FFF77DFF3B68E2
:1013B00007F108010022184600F0B0FCF863FB6B4F
:1013C000104A934202D06FF0010317E03B680022FD
:1013D0001A613B6800225A613B68183307F13402F6
:1013E0001268114619800233120C1A703A6B3B686E
:1013F000DA613B68012283F8202000231846403739
:10140000BD4680BD0000AD0B80B598B000AFF86060
:10141000B9607A607B6893F8203083F00103DBB217
:10142000002B02D04FF0FF3349E0F86802F091FB47
:10143000034683F00103DBB2002B27D00023FB65BA
:101440001FE0BA68FB6DD31A402B28BF40237B6591
:10145000FA68FB6DD11807F110037A6D184609F090
:1014600012FC07F110037A68796D1846FFF7CCFF7C
:1014700038653B6D002B01D03B6D20E0FB6D4033A8
:10148000FB65FA6DBB689A42DBD317E078680023EE
:10149000BA68F96800F0B8FEB865BB6D0A4A9342B5
:1014A00002D16FF001030AE0BB6D084A934202D0FB
:1014B0004FF0FF3303E07B68BA681A6100231846D7
:1014C0006037BD4680BD00BF0B00AD0B0000AD0B0B
:1014D00080B586B000AFF860B9607A607B6893F839
:1014E000203083F00103DBB2002B02D04FF0FF333A
:1014F00018E07B68BA68F968184601F0ADFA7861BF
:101500007B690A4A934202D16FF001030AE07B69CA
:10151000074A934202D04FF0FF3303E07B68BA687A
:101520005A61002318461837BD4680BD0B00AD0B2D
:101530000000AD0B80B586B000AFF860B9607A608E
:10154000FB68DBB2012B02D06FF003034AE17B683A
:10155000DB697B617A6807F1100318321268114663
:1015600019800233120C1A70BB68A04A934200F033
:10157000D680BB689D4A934200F2D580BB68B3F524
:10158000612F00F0C880BB68B3F5612F00F2CB80FB
:10159000BB68B3F5E12F00F0BA80BB68B3F5E12F6B
:1015A00000F2C180BB68924A934200F0AC80BB68F5
:1015B0008F4A934200F2B780BB68B3F5613F00F0F9
:1015C0009E80BB68B3F5613F00F2AD80BB68B3F5A8
:1015D000E13F00F09080BB68B3F5E13F00F2A380EB
:1015E000BB68B3F5963F00F08380BB68B3F5963FC8
:1015F00000F29980BB68B3F5614F75D0BB68B3F555
:10160000614F00F29080BB684DF6C022934267D0D4
:10161000BB684DF6C022934200F28580BB68B3F5EB
:10162000164F59D0BB68B3F5164F7CD8BB6847F648
:10163000122293424CD0BB6847F61222934272D8D2
:10164000BB68B3F5E14F40D0BB68B3F5E14F6AD852
:10165000BB68B3F5964F35D0BB68B3F5964F62D8EB
:10166000BB68B3F5615F2AD0BB68B3F5615F5AD838
:10167000BB68B3F5165F1FD0BB68B3F5165F52D8D1
:10168000BB68B3F5965F14D0BB68B3F5965F4AD8D4
:10169000BB68B3F5966F04D0BB68B3F5166F04D082
:1016A00041E04FF49E237B6140E04FF41D237B61BA
:1016B0003CE0504B7B6139E04F4B7B6136E04F4B58
:1016C0007B6133E04E4B7B6130E04E4B7B612DE024
:1016D0004FF400037B6129E04FF41D037B6125E09B
:1016E0004FF465037B6121E04FF46B037B611DE0E8
:1016F000454B7B611AE04FF0EB737B6116E04FF0D6
:101700006C737B6112E04FF080637B610EE04FF001
:10171000E8637B610AE04FF070637B6106E04FF0A5
:1017200080537B6102E06FF007035BE0FB6803F42A
:10173000E063002B02D06FF0080353E0FB6803F472
:101740004043002B03D0B3F5804F03D005E00023C6
:10175000BB7405E01023BB7402E06FF00A0341E0A4
:10176000FB6803F44053002B03D0B3F5805F03D034
:1017700005E000237B7405E00E237B7402E06FF02C
:1017800009032FE0FB6803F44033002B03D0B3F5CB
:10179000403F03D005E000233B7405E001233B7488
:1017A00002E06FF00B031DE07B687A69DA617B6809
:1017B000183307F110021268114619800233120C17
:1017C0001A707B681A687B68DB691946104602F05C
:1017D000EAF97B681A687B6818331946104602F0EC
:1017E000CAF9002318461837BD4680BD40420F0095
:1017F00090D0030000B013000050270000F03A0022
:1018000000A04E0000C0750000903A0180B582B083
:1018100000AF786004497868FFF7A2FD03461846D8
:101820000837BD4680BD00BF8020002080B500AFD6
:10183000024802F0CFF90346184680BD8020002000
:1018400080B582B000AF0346FB71FB7904491846AE
:1018500002F0D1F9034618460837BD4680BD00BFE7
:101860008020002080B582B000AF78603960054AE2
:1018700039687868FFF7C8FD034618460837BD4643
:1018800080BD00BF8020002080B582B000AF7860AE
:101890003960054A39687868FFF71AFE034618462A
:1018A0000837BD4680BD00BF8020002080B500AF56
:1018B000024802F0BFF90346184680BD8020002090
:1018C00080B500AF024802F0C0F90346184680BD5B
:1018D0008020002080B582B000AF78603960054A72
:1018E00039687868FFF726FE034618460837BD4674
:1018F00080BD00BF8020002080B483B000AF0346CD
:10190000FB7197F90730002B0BDBFB7903F01F020B
:10191000064997F907305B09012000FA02F241F805
:10192000232000BF0C37BD4680BC704700E100E0BB
:1019300080B483B000AF0346FB7197F90730002BEA
:1019400012DBFB7903F01F020A4997F907305B09A4
:10195000012000FA02F2203341F82320BFF34F8F19
:1019600000BFBFF36F8F00BF00BF0C37BD4680BC08
:10197000704700BF00E100E080B483B000AF0346D1
:101980003960FB7197F90730002B0ADB3B68DAB24C
:101990000C4997F907305201D2B20B4483F8002367
:1019A0000AE03B68DAB20849FB7903F00F03043B15
:1019B0005201D2B20B441A7600BF0C37BD4680BC30
:1019C000704700BF00E100E000ED00E080B584B0AA
:1019D00000AF78607B68002B0AD0074B43F001030F
:1019E000FB607B689B01BB60FB68B868984700E0C0
:1019F00000BF1037BD4680BDC07D000080B584B0FB
:101A000000AF78607B681B68184602F0ECFD034667
:101A100083F00103DBB2002B0ED00821164802F040
:101A20008AF81921154802F086F84FF46C720221E9
:101A3000134805F0E7FBFEE70023FB60786802F03F
:101A4000F7FD0346002B02D10E4BFB600EE0082190
:101A5000094802F070F81921084802F06CF840F2C9
:101A6000B9320221064805F0CDFBFEE7FB681846B7
:101A70001037BD4680BD00BF987D0000A47D0000EA
:101A8000A07D00000025845080B586B000AF78604E
:101A9000084611461A460346FB700B46BB701346B8
:101AA0007B703B1D1846FFF7A9FF78617A687B6958
:101AB000803253F822303B61114BFB60FB68DB4303
:101AC0003A6913403B61FA78BB785B001A437B7834
:101AD0009B001A4397F820301B021A4397F82430D2
:101AE0001B0413433A6913433B617A687B69803274
:101AF000396943F8221000BF1837BD4680BD00BFCA
:101B00000F07030080B58AB000AF786039607B684A
:101B10001B791A4613469B0013441B01534A134476
:101B20007B623B6893F8303083F00103DBB2002B1B
:101B300020D07B6ADB6C43F000731A467B6ADA6460
:101B40003B681B68B3F1FF3F09D03B681B68184630
:101B500002F0ACFD3B681B68184602F07CFD3B6858
:101B60005B68B3F1FF3F05D03B685B680021184616
:101B700002F07EFD3B6893F82C30012B28D13B68A6
:101B800093F8303083F00103DBB2002B20D07B6A66
:101B9000DB6C43F000631A467B6ADA643B68DB68FF
:101BA000B3F1FF3F05D03B68DB680021184602F027
:101BB0005FFD3B689B68B3F1FF3F09D03B689B68C2
:101BC000184602F073FD3B689B68184602F043FD1F
:101BD0003B6893F82F3083F00103DBB2002B06D073
:101BE0007B6ADB6C43F080731A467B6ADA6407F128
:101BF0000C0300221A605A609A60DA601A615A6116
:101C00003B681B68FB603B685B683B613B689B68AB
:101C10007B613B68DB68BB613B6893F82F3087F8DA
:101C200023303A6807F120032C32126811461980DC
:101C30000233120C1A703B689B6AFB617B681B685D
:101C400007F10C021146184602F038FA786802F0E3
:101C50003AFD7B6818683B6893F8322000230449FA
:101C600002F065FA00BF2837BD4680BD5C29002020
:101C70001003420080B588B000AF78607B681B79A4
:101C80001A4613469B0013441B01234A1344FB616D
:101C90007B681B6807F10C021146184602F0C5FA72
:101CA000FB69DB6C03F08073002B04D07B681B683E
:101CB000184602F0DFFAFB69DB6C03F00073002BBF
:101CC00025D0FB68B3F1FF3F03D0FB68184602F054
:101CD000E0FC3B69B3F1FF3F03D03B69184602F0DB
:101CE000D8FCFB69DB6C03F00063002B0FD0BB69F1
:101CF000B3F1FF3F03D0BB69184602F0CAFC7B6911
:101D0000B3F1FF3F03D07B69184602F0C2FC00BF6D
:101D10002037BD4680BD00BF5C29002080B58AB059
:101D200000AFF860B9607A60BB68002B0ED1082163
:101D30004E4801F000FF10214D4801F0FCFE40F23A
:101D4000C51202214B4805F05DFAFEE7FB681B79DE
:101D50003B623A6A13469B0013441B01464A1344F4
:101D60007B627B6A93F84830002B03D0434B7B6146
:101D70007B6976E050220021786A08F0CAFFBB68D0
:101D80001A697B6A1A60BB685A697B6A9A63BB6886
:101D90009B69002B03D17B6A0022DA6304E0BB68F5
:101DA0009B695A1E7B6ADA63BB681B6A042B06D9DF
:101DB000BB68DA697B6A9A617B6A0022DA617B68B8
:101DC000002B04D0BB6893F83130002B01D00023E6
:101DD00001E04FF48073FB61BB6893F83130002B56
:101DE00006D07B6ADB6C43F001031A467B6ADA6437
:101DF0007B6A7A685A607B6A012283F84820FB6814
:101E00001B68184602F0EFFC034683F00103DBB2C7
:101E1000002B01D01A4B24E0B968F868FFF772FE76
:101E2000FB681A68BB6893F831301946104602F017
:101E300026FD034683F00103DBB2002B01D0104BDB
:101E40000FE07B68002B01D00E4A00E00022FB6906
:101E50001343BB61FB681B68B969184602F072FA4C
:101E6000094B18462837BD4680BD00BF987D00004D
:101E7000C87D0000A07D00005C2900200C00AD0B97
:101E80000100AD0B10020A000000AD0B80B586B05A
:101E900000AF78607B681B791A4613469B00134499
:101EA0001B011E4A13447B617B681B683B617B6995
:101EB00093F84830002B0ED10821194801F03BFE61
:101EC0001221184801F037FE4FF41772022116480C
:101ED00005F098F9FEE71549386902F055FA3869B6
:101EE00002F092F901220121786800F05FFDF860AC
:101EF0000121786800F06CFAF8607868FFF7BAFEA4
:101F00007B690022DA647B69002283F848207B69C0
:101F100000225A6000BF1837BD4680BD5C290020F2
:101F2000987D0000D87D0000A07D000010034A00CD
:101F300080B588B000AFF860B9607A60FB70FB785C
:101F40001946F86802F029FC0346FB77F86802F0AE
:101F5000A3FAB861F86802F08EFA7861FB7F002B73
:101F600004D17A69BB689A4200D1E8E77A69BB6814
:101F70009A4205D17A68BB699A4201D90B4B00E0BD
:101F80000B4B3B613B690A4A934209D1FB7883F0D2
:101F90000103DBB2002B03D00C21F86802F046FAF3
:101FA0003B6918462037BD4680BD00BF0800AD0B19
:101FB0000000AD0B80B58AB000AFF860B960134681
:101FC000FB71FB681B791A4613469B0013441B01E7
:101FD0004B4A1344BB61FB681B687B61BB6993F888
:101FE0004830012B0ED00821464801F0A4FD0921FC
:101FF000454801F0A0FD4FF43D720221434805F031
:1020000001F9FEE7424B3B62BB699B6B002B0FD192
:10201000B968786901F06FFE034683F00103DBB213
:10202000002B01D03B4B66E0002387F8273002E00D
:10203000012387F8273000F045FEBB69DB6C03F015
:102040000103002B14BF01230023DBB2194678697A
:1020500002F0A3FB0346FB74FB7C002B27D0BB697B
:102060005B6C002B06DA786902F016FA03461A4612
:10207000BB695A6497F82730002B0ED0BB699A6B66
:10208000BB69DB6B1344BA6812781A70BB699A6B30
:10209000BB69DB6B1344FB6101E0BB68FB61FB794F
:1020A0000122F969786902F030FC1B4B3B6200F0B9
:1020B00019FE3B6A184A93421CD1FB7983F0010355
:1020C000DBB2002B16D0BB69DB6C03F00103002BE5
:1020D00014BF01230023DBB20122F9697869FFF7FD
:1020E00027FF386200F0EEFDB969786902F04EFC16
:1020F00000F0F8FD3B6A18462837BD4680BD00BF9A
:102100005C290020987D0000EC7D0000A07D00008F
:102110000B00AD0B0400AD0B0000AD0B80B588B01B
:1021200000AFF860B9607A603B60FB681B791A46C3
:1021300013469B0013441B012F4A13447B617B69A8
:102140005B68002B06D03B6803F00203002B01D034
:10215000012300E00023FB74FB7C03F00103FB740C
:10216000264BFB61FB7C002B03D07B699B6B002B18
:1021700005D07B69DB6C03F01003002B01D0204BF2
:1021800035E00023BB612DE0BA68BB691344FA7CDB
:102190001946F868FFF70EFFF861FB69174A93428A
:1021A00005D0FB69174A9342EED0FB691FE000BFE0
:1021B0007B695B68002B12D17B69DB6C03F0080341
:1021C000002B0CD07B694C33D3E8EF1F21F00801C2
:1021D000C3E8E21F002AF7D1094BFB6106E0BB69A7
:1021E0000133BB61BA697B689A42CDD3FB6918465B
:1021F0002037BD4680BD00BF5C2900200000AD0B2C
:102200000800AD0B0B00AD0B80B588B000AFF860D7
:10221000B9607A603B60FB681B791A4613469B00E5
:1022200013441B01624A13447B61FB681B683B61DA
:102230007B6993F84830012B0ED008215D4801F0EE
:102240007AFC0E215C4801F076FC40F27E320221DD
:102250005A4804F0D7FFFEE7FB681B79002B03D137
:102260007B68B3F5005F0ED30821524801F063FC90
:102270000E21514801F05FFC40F27F3202214F48AD
:1022800004F0C0FFFEE7BB68002B0ED108214948CF
:1022900001F051FC0E21484801F04DFC4FF46072F2
:1022A0000221464804F0AEFFFEE77B68002B0ED10A
:1022B0000821404801F03FFC0E213F4801F03BFC63
:1022C00040F2813202213D4804F09CFFFEE73C4B86
:1022D000FB617B68002B01D13A4B65E07B695B6851
:1022E000002B17D13B68002B14D17B69DB6A002BD4
:1022F0000ED17B697A68DA6200237A68B968F86877
:10230000FFF70CFFF8617B690022DA62FB694BE0A2
:102310002D4B49E03B6803F00303002B07D03B68DB
:102320007A68B968F868FFF7F9FE03463CE0B968D7
:10233000386901F0E0FC034683F00103DBB2002BB7
:1023400008D07B699B6B002B01D1204BFB610123E3
:10235000FB7601E00023FB76FB69194A934201D02A
:10236000FB6921E000F0AEFC7B69DB6A002B16D133
:102370007B697A68DA627B69BA689A62FB7E002BB5
:1023800006D07B69DB6C43F002031A467B69DA6492
:10239000FB7E1A467969386902F06EFB01E00A4B50
:1023A000FB6100F09FFCFB6918462037BD4680BDED
:1023B0005C290020987D0000F87D0000A07D0000D1
:1023C0000000AD0B0600AD0B0B00AD0B0A00AD0B12
:1023D00080B586B000AF78600B46FB707B681B79D8
:1023E0001A4613469B0013441B011D4A13447B618C
:1023F0007B681B683B61386902F0AFF9F8607B6964
:10240000DB6A002B05D1F968386902F0B9F9154B80
:1024100021E07B694C33D3E8EF1F41F00801C3E8AA
:10242000E21F002AF7D10C21386901F0FFFFFB7889
:10243000002B0BD07969386902F0C5FA4FF490711E
:10244000386901F027FF7B690022DA62F968386990
:1024500002F096F9044B18461837BD4680BD00BF00
:102460005C2900200500AD0B0000AD0B80B584B0E9
:1024700000AFF860B9607A604FF48471F86801F0D9
:1024800009FF2021F86801F04EFF0C4B1946F8684F
:1024900001F07AFFF86802F0D7FBBB6800229A606F
:1024A000BB6800221A61B86802F098FB7968B868C6
:1024B00002F059FB00BF1037BD4680BD10020A0074
:1024C00080B586B000AF786039607B681B791A46AA
:1024D00013469B0013441B015A4A13447B617B68DB
:1024E0001B683B617B694C33D3E8EF2F42F480518A
:1024F000C3E8E01F0028F7D1FA60FB6803F48053BB
:10250000002B01D0504B99E03B6803F00403002BF3
:1025100005D07B699B69002B01D14C4B8EE04C4B65
:102520001946386901F030FF386901F053FF4FF464
:102530008871386901F0AEFE4FF4A671386901F078
:10254000A9FE4FF4A271386901F0A4FE3B689B0319
:1025500003F480423B681B0303F400531A433B68B7
:102560005B0303F400431343BB607B694C33BA68DD
:10257000D3E8EF0F40EA0200C3E8E10F0029F7D1EA
:102580007B699B68002B07D17B695B68002B03D0BC
:102590000321786902F0CCFA7B699B68002B0FD18C
:1025A000786902F0E0F9034683F00103DBB2002B07
:1025B00001D0284B42E0786902F010FB264B3DE049
:1025C0000421386901F0CDFE0346002B17D07B694A
:1025D0005B68002B13D07B69DB6C03F40023002BBA
:1025E0000DD07B694C33D3E8EF1F21F40021C3E801
:1025F000E21F002AF7D10621786902F099FA7B6977
:10260000DB6C03F48053002B17D04FF4A6713869AC
:1026100001F051FE034683F00103DBB2002B03D02F
:102620000021386901F002FF7B695B68002B04D050
:10263000074B1946386901F085FE064B18461837D6
:10264000BD4680BD5C2900200B00AD0B0800AD0B22
:1026500010020A000000AD0B0200AD0B80B586B081
:1026600000AFF860B9607A603B603D4B7B61BB684E
:102670009B68002B0BD0BB685B68002B4DD14FF4DF
:102680008871F86801F017FE0346002B45D0BB683F
:102690009B68002B04D04FF48871F86801F0FAFDB4
:1026A000BB687A689A60BB683A68DA60B968F868AB
:1026B00002F049FB0346002B4CD0BB689A68BB680C
:1026C0005B6AD118BB68DA68BB685B6AD31A1A46C2
:1026D000F86801F0F2FEBB68DB6C03F48053002B5A
:1026E00038D0BB684C33D3E8EF1F21F48021C3E816
:1026F000E21F002AF7D10021F86801F097FE4FF49D
:10270000A271F86801F0D7FD0346002B22D04FF4E8
:10271000A271F86801F0BEFD1CE0BB681B69002BCC
:1027200015D1BB687A681A61BB683A685A613A6821
:102730007968F86801F0C1FEBB68DB6C03F4804384
:10274000002B08D02021F86801F0DEFD03E0054BE6
:102750007B6100E000BF7B6918461837BD4680BD2D
:102760000000AD0B0B00AD0B80B58AB000AFF86078
:10277000B9607A60FB681B7919464B4A0B469B008F
:102780000B441B01134448331B78012B0ED0082146
:10279000464801F0D0F91921454801F0CCF940F242
:1027A000AC520221434804F02DFDFEE7FB681B7983
:1027B000002B03D17B68B3F5005F0ED308213B48A3
:1027C00001F0B9F919213A4801F0B5F940F2AD52DA
:1027D0000221384804F016FDFEE7BB68002B0ED13D
:1027E0000821324801F0A7F91921314801F0A3F975
:1027F00040F2AE5202212F4804F004FDFEE77B6850
:10280000002B0ED10821294801F095F919212848FB
:1028100001F091F940F2AF520221264804F0F2FC97
:10282000FEE7FB681B791A4613469B0013441B0105
:102830001D4A1344FB61FB681B68BB61002387F8DA
:1028400027301D4B3B62B86901F087FF7861FB6957
:10285000DB6C03F48023002B02D0184B3B620FE0AB
:10286000B968B86901F047FA034683F00103DBB2A7
:10287000002B02D0124B3B6202E0012387F8273085
:1028800097F82730002B06D07B68BA68F969B869D9
:10289000FFF7E4FE38627969B86901F071FF3B6ABD
:1028A00018462837BD4680BD5C290020987D000071
:1028B000087E0000A07D00000000AD0B0500AD0B00
:1028C0000A00AD0B80B588B000AFF860B960114662
:1028D0001A460B46FB711346BB712021F86801F0C4
:1028E00000FD0346002B14BF01230023FB75BB68CA
:1028F000DB6C03F48223B3F5805F07D0FB79002BF8
:1029000002D0BB680022DA61254B45E0F86801F08F
:1029100024FFB861FB79002B05D1FB7D83F0010317
:10292000DBB2002B07D02021F86801F0FCFC4FF44B
:10293000A113FB6102E04FF48033FB61BB684C33B1
:10294000FA69D3E8EF0F40EA0200C3E8E10F00297B
:10295000F7D1BB79002B03D1BB685B68002B12D188
:10296000104B1946F86801F00FFD0421F86801F0DA
:102970005DFDB968F86802F0B1FA0A4BDB43BA6949
:102980001340BB6103E00421F86801F04FFDB96911
:10299000F86801F0F5FE044B18462037BD4680BDAF
:1029A0000500AD0B10020A000000AD0B80B584B02D
:1029B00000AF78600B46FB701346BB707B68002B42
:1029C0000ED10821204801F0B6F814211F4801F06B
:1029D000B2F84FF4CE6202211D4804F013FCFEE76A
:1029E0007B681B7919461B4A0B469B000B441B0155
:1029F000134448331B78012B0ED00821124801F0F4
:102A00009AF81421114801F096F840F271620221FF
:102A10000F4804F0F7FBFEE77B681B791A46134664
:102A20009B0013441B010B4A1344FB607B681B682B
:102A3000BB60BB78FA78F968B868FFF743FF0346D4
:102A400018461037BD4680BD987D0000247E0000EA
:102A5000A07D00005C29002080B588B000AFF86040
:102A6000B9607A607A68B968F868FFF77DFEF86146
:102A7000FB681B791A4613469B0013441B01524AFC
:102A80001344BB61BB6993F84830012B0ED0082179
:102A90004E4801F050F80E214D4801F04CF84FF42B
:102AA000D06202214B4804F0ADFBFEE7FB681B79C6
:102AB000002B03D17B68B3F5005F0ED30821434898
:102AC00001F039F80E21424801F035F840F28162F8
:102AD0000221404804F096FBFEE7BB68002B0ED1B4
:102AE00008213A4801F027F80E21394801F023F86F
:102AF00040F282620221374804F084FBFEE77B68E3
:102B0000002B0ED10821314801F015F80E21304874
:102B100001F011F840F2836202212E4804F072FBAA
:102B2000FEE7FB692C4A934201D0FB6948E003238E
:102B30007B617969F868FFF7C3FCF861FB69274A94
:102B4000934205D0FB69244A934201D0FB6937E0E8
:102B5000214BFB61BB695B68002B30D100233B61DB
:102B600007F110031946F86800F03EF8F861FB69B8
:102B70001A4A9342F4D0FB69194A934203D03B6945
:102B80007A689A4202D9174BFB6118E001220121B1
:102B9000F868FFF70BFFF861FB690F4A93420ED00C
:102BA00008210A4800F0C7FF0E21094800F0C3FFC2
:102BB00040F2A3620221074804F024FBFEE7FB6910
:102BC00018462037BD4680BD5C290020987D000056
:102BD000387E0000A07D00000000AD0B0B00AD0BA7
:102BE0000C00AD0B0800AD0B80B584B000AF786071
:102BF00039607B681B791A4613469B0013441B01FE
:102C0000284A1344FB60FB6893F84830012B0ED030
:102C10000821254800F08FFF1421244800F08BFF85
:102C200040F2AE620221224804F0ECFAFEE7FB68B3
:102C30005B68002B01D01F4B2FE07B681B68184698
:102C400001F0E2FB034683F00103DBB2002B0CD062
:102C50003B68002B07D07B681B68184601F03EFCE0
:102C600002463B681A60144B17E07B681B684FF400
:102C70008871184601F01FFB0346002B0CD03B68FF
:102C8000002B07D07B681B68184601F027FC024622
:102C90003B681A60094B00E0094B18461037BD46E7
:102CA00080BD00BF5C290020987D0000487E0000A8
:102CB000A07D00000800AD0B0C00AD0B0000AD0BBB
:102CC0000B00AD0B80B400AF72B600BF044B1B68A5
:102CD0000133034A136000BFBD4680BC704700BF8C
:102CE000AC29002080B500AF0F4B1B68002B0DD125
:102CF00008210E4800F01FFF1B210D4800F01BFFAC
:102D00002C2202210B4804F07DFAFEE7064B1B68DB
:102D1000013B054A1360044B1B68002B01D162B6CE
:102D200000BF00BF80BD00BFAC2900205C7E00005A
:102D3000687E0000647E000080B487B000AFF86059
:102D4000B9607A60FB681B687B617B69114A1A6312
:102D5000BB68002B01D0042200E000227B68002B1E
:102D600001D0022300E000231A437B695A607B698B
:102D70005B6843F001027B695A60BFF34F8F00BF6D
:102D8000BFF36F8F00BF002318461C37BD4680BCC1
:102D9000704700BF04AAFF0080B582B000AF786022
:102DA000084611461A460346FB700B46BB70134695
:102DB0007B70FA787B68A03253F8323003F480736A
:102DC000002B0ED00821244800F0B5FE1521234821
:102DD00000F0B1FE4FF468720221214804F012FAAB
:102DE000FEE7FB787A68A033DB0013445B6803F4EA
:102DF0008073002B0ED00821174800F09CFE15218F
:102E0000164800F098FE40F2A1320221144804F066
:102E1000F9F9FEE77B783A7C002A02D04FF4807102
:102E200000E00021FA7819437B68A03243F83210A1
:102E3000BA783B7C002B02D04FF4807100E0002177
:102E4000FB780A437968A033DB000B445A6000BF6B
:102E50000837BD4680BD00BF847E0000F07E0000C4
:102E60008C7E000080B584B000AFF8607B600B46BC
:102E7000FB721346BB72FA7AFB6802F5C07253F814
:102E8000223003F48073002B0ED00821134800F089
:102E900052FE1821124800F04EFE40F2BE320221CE
:102EA000104804F0AFF9FEE7BB7A002B01D01022E6
:102EB00000E000227B6813433A7E002A02D04FF4E0
:102EC000807100E00021FA7A1943FB6802F5C072B4
:102ED00043F8221000BF1037BD4680BD847E00003D
:102EE000907E00008C7E000080B584B000AFF8605A
:102EF0007B600B46FB721346BB72FA7AFB6802F5E5
:102F0000E07253F8223003F48073002B0ED00821B6
:102F1000134800F010FE1621124800F00CFE40F29B
:102F2000CB320221104804F06DF9FEE7BB7A002B8A
:102F300001D0102200E000227B6813433A7E002A71
:102F400002D04FF4807100E00021FA7A1943FB6847
:102F500002F5E07243F8221000BF1037BD4680BD75
:102F6000847E0000A87E00008C7E000080B584B0C6
:102F700000AFF860B96011461A460B46FB71134664
:102F8000BB71FB68BA6802F5007253F82230002B5F
:102F90000EDB0821234800F0CEFD1721224800F067
:102FA000CAFD4FF476720221204804F02BF9FEE7A7
:102FB000FB68BA6802F5007253F8223003F480739C
:102FC000002B0ED00821174800F0B5FD1721164838
:102FD00000F0B1FD40F2D9320221144804F012F998
:102FE000FEE7FB79002B01D0102200E00022BB7924
:102FF000002B01D0202300E0002313433A7E002A57
:1030000002D04FF4807200E0002242EA0301FB6824
:10301000BA6802F5007243F8221000BF1037BD46AF
:1030200080BD00BF847E0000287F00008C7E0000F1
:1030300080B582B000AF00233B603B6843F00103E2
:103040003B603B6843F002033B603B6843F0040392
:103050003B6000237B600AE0094A7B6852F823301A
:103060003968184602F05FF87B6801337B607B6843
:10307000002BF1D000BF00BF0837BD4680BD00BFA8
:10308000E420002080B582B000AF00237B600023E5
:103090003B6032E01D4A3B6852F823304FF48471A4
:1030A000184602F030F80346002B03D07B6843F04B
:1030B00004037B60154A3B6852F823304FF480715B
:1030C000184602F020F80346002B03D07B6843F03B
:1030D00001037B600D4A3B6852F823304FF4827144
:1030E000184602F010F80346002B03D07B6843F02B
:1030F00002037B603B6801333B603B68002BC9D017
:103100007B6818460837BD4680BD00BFE42000201C
:1031100080B582B000AF00237B601DE0124A7B685F
:1031200052F823304FF48071184601F0D7FF0E4A51
:103130007B6852F823304FF48271184601F0CEFFBD
:10314000094A7B6852F823304FF48471184601F025
:10315000C5FF7B6801337B607B68002BDED000BF3E
:1031600000BF0837BD4680BDE420002080B584B094
:1031700002AF00237B6017E07B68DBB2194617487B
:1031800001F0DFFF034683F00103DBB2002B08D020
:103190007B68D9B200230093072301220F48FFF771
:1031A00061FE7B6801337B607B681F2BE4D90023C1
:1031B0003B600BE03B68D9B2002300930723012258
:1031C0000648FFF791FE3B6801333B603B681F2BCD
:1031D000F0D900BF00BF0837BD4680BD00300050A9
:1031E00080B58AB002AFF860B9603B601346FB71EE
:1031F000FB68DB0BBB61BB68DB0B7B61BB69FB6105
:103200000CE0FB69D9B2FA7997F8283000933B6853
:103210000748FFF727FEFB690133FB61FA697B6909
:103220009A42EED900BF00BF2037BD4680BD00BF27
:103230000030005080B58AB002AFF860B9603B60E2
:103240001346FB71FB6803F160435B0BBB61BB681A
:1032500003F160435B0B7B61BB69FB610CE0FB69C5
:10326000D9B2FA7997F8283000933B680748FFF7FE
:103270003BFEFB690133FB61FA697B699A42EED937
:1032800000BF00BF2037BD4680BD00BF00300050EA
:1032900080B586B002AF786039603A687B68D31A2F
:1032A0000133FB607B68C3F30E03C3F50043BB60CF
:1032B000FA68BB689A420DD90821304800F03BFCFF
:1032C0002D212F4800F037FCF82202212D4803F071
:1032D00099FFFEE77A68BB681344C3F30E03002B23
:1032E0000DD00821254800F026FC2D21244800F0AF
:1032F00022FCFB220221234803F084FFFEE7BB6887
:103300005A1EBB681340002B0DD008211B4800F04B
:1033100012FC2D211A4800F00EFCFF220221194850
:1033200003F070FFFEE7BB681F2B03D9BB68B3F542
:10333000805F0ED90821114800F0FDFB2D211048B7
:1033400000F0F9FB4FF4817202210E4803F05AFF9E
:10335000FEE7BB68B3FA83F3DBB2C3F11B03DAB257
:103360007B68DB0BDBB20121009100210648FFF7EF
:1033700013FD00BF1037BD4680BD00BF847E000036
:10338000C07E00008C7E00000030005080B586B00A
:1033900002AF78600B46FB707B681B0BFB73124A15
:1033A000FB7B03F5007352F8233003F00303002B7B
:1033B0000ED108210D4800F0BEFB1D210C4800F085
:1033C000BAFB4FF4A77202210A4803F01BFFFEE785
:1033D000F97BFB780093012301220348FFF7C6FD28
:1033E00000BF1037BD4680BD00300050847E000015
:1033F000087F00008C7E000080B586B002AF786048
:103400000B46FB707B681B0BFB73124AFB7B03F5BF
:10341000007352F8233003F00303012B0ED108216F
:103420000D4800F088FB21210C4800F084FB4FF48C
:10343000B67202210A4803F0E5FEFEE7F97BFB784D
:103440000093002300220348FFF790FD00BF1037D0
:10345000BD4680BD00300050847E0000407F0000EB
:103460008C7E000080B582B000AF786016210348E2
:1034700000F061FB00BF0837BD4680BD647F0000DF
:1034800080B500AFFFF7FEFD0346034A1360024814
:10349000FFF7E8FF00BF80BDF82F002080B582B0A5
:1034A00000AF78600C220449786807F0ECFB00BF9D
:1034B0000837BD4680BD00BFF82F002080B483B020
:1034C00000AF0C4BDB687B607B689BB27B607B68EA
:1034D00023F008037B607B6843F0BF6343F4003351
:1034E0007B60044A7B68D36000BF0C37BD4680BC5C
:1034F000704700BF00ED00E080B500AF2E2102480C
:1035000000F019FB00BF80BD7C7F000080B483B059
:1035100000AF78603960064A7B681360054A3B68F3
:103520001360002318460C37BD4680BC704700BFAF
:10353000043000200830002090B589B000AF7860DA
:10354000544B1B687A6852695A62524B1B687A68FE
:1035500092699A624F4B1B687A68D269DA624D4B66
:103560001B687A68126A1A634A4B1B687A68526A47
:103570005A63484B1B687A68926A9A63454B1B688A
:103580007A68D26ADA63434B1B687A68126B1A64F2
:10359000404B1B687A68526B5A603E4B1B687A68D6
:1035A000926B9A603B4B1B687A68D26BDA60394B3E
:1035B0001B687A68126C1A61364B1B687A68526C09
:1035C0005A61344B1B687A68926C9A61314B1B6864
:1035D0007A68D26CDA612F4B1B687A68126D1A62B6
:1035E0002C4B1B687A68926D5A652A4B1B687A6867
:1035F000D26D9A65274B1B687A68126FDA65254B86
:103600001B687A68126E1A66224B1B687A68926E83
:103610005A66204B1B687A68526F9A661D4B1B686E
:10362000EFF388827A617A695A641A4B1B68EFF368
:103630008982BA61BA699A64164B1B687A685268C3
:10364000DA64144B1B68EFF39482FA61FA691A6525
:10365000104B1B687A6812681A6707F1080318464E
:10366000FFF71CFF0B4B1B68BA68DA66094B1B6837
:1036700001221A70084B1B681C466408640020462F
:1036800021462246234607F0AAFC00BF2437BD4648
:1036900090BD00BF043000200830002080B5A0B0ED
:1036A00000AF3B461846FDF7E1FC7B68002B14BFDA
:1036B0000123002387F87F3097F87F3083F00103E0
:1036C000DBB2002B15D17B68184601F0FBFD0346E9
:1036D000002B0ED13B68052B01D0072B0BD100BF6F
:1036E000074B1B68002B07D03B461846FFF724FF0B
:1036F00002E000BF00E000BF8037BD4680BD00BFD4
:103700000830002080B400AFBFF34F8F00BF064BDE
:10371000DB6803F4E0620449044B1343CB60BFF35E
:103720004F8F00BF00BFFDE700ED00E00400FA0589
:1037300090B58FB000AF7860396001237B620623BB
:103740003B627B685B680C2B03D13B685B68042B96
:1037500001D0022397E07B681B68FB613B681B6814
:10376000BB61BB694FF0FF321A6002237B63FB69C8
:103770001B68002B03D0FB699B68002B01D102233F
:1037800081E0FB691B681946FB699A683B6A786AA5
:1037900004F03BF978617B69002B01D0022372E0D1
:1037A00000233B636BE03A4A3B6B52F833303B619A
:1037B000374A3B6BDB0013445B68FB60FB695B686B
:1037C0003A699A4258D8FB695A68FB699B681A445F
:1037D0003969FB680B449A424ED83B692D4A9342A3
:1037E0003AD93B692C4A934236D8FB695B68FB6245
:1037F000FB691B68BB62294BBB60FB6A03F00303D8
:10380000002B0DD1FB699B6803F00303002B07D14C
:10381000FB695A68FB699B681344BA689A4211D2E3
:10382000032330E0FB6A1A1DFA62BC6A221DBA62E9
:10383000184601F0E8FD03462360FB699B681A1FE8
:10384000FB699A60FB699B68002BEBD1BB69002286
:103850001A6000237B6315E0FB691868FB695B68ED
:103860001946FB699B681A4607F00DFABB690022EE
:103870001A6000237B6305E03B6B01333B633B6BCA
:10388000032B90D97B6B18463C37BD4690BD00BFDB
:10389000AC7F0000FF7FFF00FF8FFF000090FF0064
:1038A00080B48FB000AF786039607B685B680C2BA8
:1038B00003D13B685B68042B01D0022384E07B6862
:1038C0001B687B623B681B683B623B6A01221A6093
:1038D00002237B6300233B6372E03E4A3B6B1B0188
:1038E00013441B68FB613B4A3B6B1B0113440433CD
:1038F0001B68BB6100237B617B6A1B68FA699A4283
:103900005BD13B6A02221A607B6A9B68BA699A4261
:1039100053D17B69002B36D02E4A3B6B1B011344DD
:1039200008331B68002B2ED0002387F82F3000238C
:10393000BB6219E0274A3B6B1B01134408331A682A
:10394000BB6A9B0013441B683B617B6A5A687B6AB5
:103950009B6813403A699A4203D1012387F82F30BC
:1039600006E0BB6A0133BB62BB6A7A699A42E1D85E
:1039700097F82F3083F00103DBB2002B03D03B6AB2
:1039800003221A601FE0FB691B68FB607B6A9B686F
:10399000DB43FA681340FB607B6A5A687B6A9B686A
:1039A0001340FA681343FB60FB69FA681A603B6ACC
:1039B00000221A6000237B6305E03B6B01333B630D
:1039C0003B6B002B89D07B6B18463C37BD4680BCD7
:1039D000704700BFCC7F000080B485B000AF786036
:1039E0007B681B68FB60BFF34F8F00BFFB68B3F1C0
:1039F000FF3F0CBF01230023DBB218461437BD463E
:103A000080BC704780B483B000AF78607B689B094E
:103A100003F00103002B14BF01230023DBB218467F
:103A20000C37BD4680BC704780B483B000AF78606F
:103A30007B6803F00803002B14BF01230023DBB2D3
:103A400018460C37BD4680BC704780B584B000AFC7
:103A500078607868FFF7D6FF0346002B11D07B68AB
:103A600003F00403002B07D07868FFF7DDFF03465F
:103A7000002B01D0012300E0002303F00103DBB29F
:103A800019E0EFF39483BB60BB6803F00203002BE3
:103A900014BF01230023FB73FB7B002B07D0786846
:103AA000FFF7C2FF0346002B01D0012300E00023F3
:103AB00003F00103DBB218461037BD4680BD80B568
:103AC00088B000AFF860B9607A60F868FFF7BDFFB2
:103AD0000346FB77F868FFF795FF0346002B06D0F7
:103AE000FB7F002B01D07B680DE0BB680BE0FB7F08
:103AF000002B04D0EFF38983BB61BB6903E0EFF3D4
:103B000088837B617B6918462037BD4680BD80B5C0
:103B100082B000AF03463960FB713B685B681846B2
:103B2000FFF770FF3B685B681846FFF77DFF00BF3B
:103B30000837BD4680BD80B582B000AF786039607F
:103B400039687868FDF722FB034618460837BD46FA
:103B500080BD80B483B000AF78607B6803F06043C1
:103B6000B3F1005F0CBF01230023DBB218460C3712
:103B7000BD4680BC704780B483B000AF78603960C8
:103B80003B685A783B689B781343DAB23B681B78F2
:103B90001343DBB21A467B68C3F86C2500BF0C37B1
:103BA000BD4680BC704780B483B000AF7860396098
:103BB0007B683A68C3F8242500BF0C37BD4680BC3B
:103BC000704780B400AF002343F001031846BD46A0
:103BD00080BC704780B582B000AF78607B681846C3
:103BE000FEF754F97B68002283F820200023184652
:103BF0000837BD4680BD80B483B000AF034639604E
:103C0000FB71FB79022B01D1002301E06FF003036C
:103C100018460C37BD4680BC704780B485B000AFF5
:103C2000F860B9607A606FF0030318461437BD4638
:103C300080BC704780B483B000AF78607B681B693C
:103C400018460C37BD4680BC704780B483B000AFC7
:103C500078607B685B6918460C37BD4680BC70474E
:103C600080B483B000AF00237B607B6818460C37BC
:103C7000BD4680BC704780B483B000AF0346FB7183
:103C80006FF0030318460C37BD4680BC704780B404
:103C900083B000AF00237B607B6818460C37BD46BD
:103CA00080BC704780B483B000AF78607B681B0B2A
:103CB0005BB218460C37BD4680BC704780B483B0F9
:103CC00000AF78607B681B6800BF0C37BD4680BCC6
:103CD000704780B400AF00BFBD4680BC704780B461
:103CE00000AF00BFBD4680BC704780B400AF00BFCE
:103CF000BD4680BC704780B483B000AF7860396047
:103D00003B6803F06043B3F1005F0CBF0123002365
:103D1000DBB218460C37BD4680BC704780B483B018
:103D200000AF786039607A683B6813441B68002BE9
:103D300014BF01230023DBB218460C37BD4680BCFC
:103D4000704780B582B000AF78600B467B807B887F
:103D50007A68134400221A607B887A6813441846F4
:103D6000FFF7ACFF00BF0837BD4680BD80B582B00D
:103D700000AF78600B467B807B8819467868FFF738
:103D8000CDFF034618460837BD4680BD80B483B0DA
:103D900000AF786039607B68D3F800223B6813403D
:103DA00018460C37BD4680BC704780B483B000AF66
:103DB000786039607B68D3F800223B681A437B68DF
:103DC000C3F8002200BF0C37BD4680BC704780B4EA
:103DD00083B000AF786039607B68D3F800223B681D
:103DE000DB431A407B68C3F8002200BF0C37BD4696
:103DF00080BC704780B483B000AF786039607B6866
:103E00003A68C3F8042300BF0C37BD4680BC704736
:103E100080B483B000AF786039607B68D3F8042346
:103E20003B68134018460C37BD4680BC704780B4D1
:103E300083B000AF786039607B683A68C3F80823C4
:103E400000BF0C37BD4680BC704780B483B000AF64
:103E500078607B68D3F8803418460C37BD4680BC48
:103E6000704780B483B000AF786039607B683A688F
:103E7000C3F8802400BF0C37BD4680BC704780B4B7
:103E800083B000AF78607B680822C3F8002500BFCC
:103E90000C37BD4680BC704780B483B000AF7860FB
:103EA0007B680022C3F8002500BF0C37BD4680BCEC
:103EB000704780B483B000AF78607B68D3F800357A
:103EC000082B0CBF01230023DBB218460C37BD467C
:103ED00080BC704780B485B000AFF860B9607A608C
:103EE000FB68BA68C3F80C25FB687A68C3F8142528
:103EF00000BF1437BD4680BC704780B582B000AFAC
:103F000078604FF0FF324FF0FF317868FFF7E2FF43
:103F100000BF0837BD4680BD80B483B000AF786075
:103F20007B68D3F80C3518460C37BD4680BC70470B
:103F300080B483B000AF78607B68D3F8143518463E
:103F40000C37BD4680BC704780B483B000AF78604A
:103F50007B68D3F8083518460C37BD4680BC7047DF
:103F600080B483B000AF78607B68D3F81035184612
:103F70000C37BD4680BC704780B485B000AFF86098
:103F8000B9607A60FB68BA68C3F80825FB687A688C
:103F9000C3F8102500BF1437BD4680BC704780B5FC
:103FA00082B000AF78604FF0FF324FF0FF31786899
:103FB000FFF7E2FF00BF0837BD4680BD80B483B085
:103FC00000AF78600B46FB70FB787A6813440122DF
:103FD0001A6000BF0C37BD4680BC704780B483B008
:103FE00000AF786039603B685A783B689B78134330
:103FF000DAB23B681B781343DBB21A467B68C3F81E
:104000006C2500BF0C37BD4680BC704780B483B0C0
:1040100000AF786039607B683A68C3F8242500BF38
:104020000C37BD4680BC704780B485B000AFF860E7
:10403000B9607A60BA68FB68C3F84425FB687A689F
:10404000C3F8482500BF1437BD4680BC704780B414
:1040500083B000AF78607B68D3F8443518460C37DE
:10406000BD4680BC704780B483B000AF78607B6889
:10407000D3F84C3518460C37BD4680BC704780B429
:1040800085B000AFF860B9607A60BA68FB68C3F8C1
:104090003425FB687A68C3F8382500BF1437BD465D
:1040A00080BC704780B483B000AF78607B68D3F881
:1040B0003C3518460C37BD4680BC704780B582B091
:1040C00000AF786039603B681B6919467868FFF774
:1040D0009DFF3B68143319467868FFF77FFF3B6804
:1040E000DB7D83F00103DBB2002B07D03B6819684E
:1040F0003B685B681A467868FFF7ECFE3B681B7DFF
:10410000012B0ED13B68DB7D83F00103DBB2002B7A
:1041100007D03B6899683B68DB681A467868FFF708
:104120002BFFFFF7D6FD00BF0837BD4680BD80B529
:1041300084B000AFF860B96011461A460B46FB71B7
:104140001346BB714FF48072B968F86800F0D7F974
:104150004FF48272B968F86800F0D1F94FF48472B4
:10416000B968F86800F0CBF94FF48872B968F8685C
:1041700000F0C5F94FF48E72B968F86800F0BFF925
:104180004FF49072B968F86800F0B9F94FF4927280
:10419000B968F86800F0B3F94FF4A272B968F8682A
:1041A00000F0ADF94FF4A672B968F86800F0A7F90D
:1041B0004FF4A872B968F86800F0A1F94FF4AC7236
:1041C000B968F86800F09BF9FFF783FDF868FFF71E
:1041D00069FD03461A46FB7919461046FDF7CCFBEC
:1041E000F868FFF75FFD03461846FDF785FBBB79CE
:1041F000002B03D0B968F868FFF7FCFDFFF769FDF5
:1042000000BF1037BD4680BD80B582B000AF78607A
:104210007868FFF747FD03461846FDF789FBFFF76F
:1042200058FD00BF0837BD4680BD80B582B000AFE5
:1042300078603960FFF759FD7868FFF76DFE024638
:104240003B681A607868FFF773FE02463B685A6065
:104250007868FFF779FE02463B689A607868FFF756
:104260007FFE02463B68DA60FFF739FD00BF083782
:10427000BD4680BD80B582B000AF78607868FFF73A
:104280003CFE7868FFF78BFEFFF723FD00BF083781
:10429000BD4680BD80B582B000AF78600B467B80A4
:1042A0007B8819467868FFF74CFDFFF712FD00BFC9
:1042B0000837BD4680BD80B584B000AF78600B463E
:1042C0007B80FFF70CFD7B8819467868FFF74EFD71
:1042D0000346FB73FFF703FDFB7B18461037BD4613
:1042E00080BD80B584B000AF78603960FFF7FDFC19
:1042F00039687868FFF74AFDF860FFF7F0FCFB6863
:1043000018461037BD4680BD80B582B000AF7860DA
:10431000396039687868FFF748FDFFF7DAFC00BFBD
:104320000837BD4680BD80B582B000AF7860396087
:1043300039687868FFF74BFDFFF7CBFC00BF083703
:10434000BD4680BD80B582B000AF78603960396805
:104350007868FFF74FFDFFF7BCFC00BF0837BD468C
:1043600080BD80B584B000AF78603960FFF7BDFCD8
:1043700039687868FFF74CFDF860FFF7B0FCFB6820
:1043800018461037BD4680BD80B582B000AF78605A
:10439000396039687868FFF74AFDFFF79AFC00BF7B
:1043A0000837BD4680BD80B584B000AF7860FFF7A8
:1043B0009CFC7868FFF749FDF860FFF796FCF96808
:1043C0007868FFF74EFDFFF790FCFB681846103742
:1043D000BD4680BD80B582B000AF78607868FFF7D9
:1043E0004EFDFFF776FC00BF0837BD4680BD80B5A7
:1043F00082B000AF78607868FFF74EFDFFF769FC88
:1044000000BF0837BD4680BD80B584B000AF78607E
:10441000FFF76BFC7868FFF74CFD0346FB73FFF773
:104420005EFCFB7B18461037BD4680BD80B582B070
:1044300000AF78600B46FB70FB7819467868FFF791
:10444000BDFDFFF746FC00BF0837BD4680BD80B507
:1044500084B000AFF860B9607A60BB68002B06D00A
:104460007A68B968F868FFF7DFFDFFF732FC00BF34
:104470001037BD4680BD80B584B000AF7860FFF7CF
:104480002EFC7868FFF7E3FDF860FFF728FCFB6877
:1044900018461037BD4680BD80B584B000AF786047
:1044A000FFF71DFC7868FFF7DEFDF860FFF717FCEB
:1044B000FB6818461037BD4680BD80B584B000AF9C
:1044C000F860B9607A607A68B968F868FFF7D7FD74
:1044D000FFF7FFFB00BF1037BD4680BD80B584B03D
:1044E00000AF7860FFF7FBFB7868FFF7DBFDF86053
:1044F000FFF7F5FBFB6818461037BD4680BD80B559
:1045000084B000AFF860B9601346FB80FB88A3F568
:1045100080739B0801229A40BB681340002B04D093
:10452000FB881946F868FFF70CFC00BF1037BD4642
:1045300080BD80B584B002AF786000230193002372
:1045400000930023012201217868FDF79DFA00BF46
:104550000837BD4680BD80B584B002AF78600B4699
:10456000FB70FB78002201920022009200220021C1
:104570007868FDF789FA00BF0837BD4680BD80B571
:1045800084B002AF786000230193002300930023DE
:10459000012200217868FDF777FA00BF0837BD4691
:1045A00080BD80B584B000AF78603B1D1846FDF734
:1045B00025FAF8607B68012202FA03F31946F868CD
:1045C00000F004F800BF1037BD4680BD80B483B052
:1045D00000AF786039607B683A689A6000BF0C373A
:1045E000BD4680BC704780B485B000AF78607B6802
:1045F0005B09FB600023BB60FB68002B12D14FF00E
:10460000FF33BB607B6803F01F037B60BA687B6885
:1046100022FA03F303F00103002B14BF012300234C
:10462000DBB200E0002318461437BD4680BC70475B
:1046300080B485B000AF78607B681B68FB60FB6866
:1046400003F01F027B681A60FB685B091846143789
:10465000BD4680BC704780B582B000AF7860786896
:10466000FFF767FFFFF735FB00BF0837BD4680BD8A
:1046700080B582B000AF78600B46FB70FB781946BE
:104680007868FFF768FFFFF724FB00BF0837BD46D7
:1046900080BD80B582B000AF78607868FFF76FFFAB
:1046A000FFF717FB00BF0837BD4680BD80B582B05D
:1046B00000AF78607868FFF774FFFFF70AFB00BF70
:1046C0000837BD4680BD80B586B000AF78607B6896
:1046D0001B6803F26453FB607B681B6803F5AD63E2
:1046E000BB60BB681B68012B05D17B681B680C2174
:1046F0001846FFF79BFEFB681B68012B29D17B68DE
:104700001B681846FFF766FE7B681B680421184685
:10471000FFF78CFE0023FB7549F640433B61FB68C5
:104720001B68002B02D10123FB7508E00120FDF777
:104730004DF93B69013B3B613B69002BEFD17B6845
:104740001B681846FFF72FFE7B681B681846FFF7AB
:104750004EFE00BF1837BD4680BD80B584B000AFA7
:1047600078604FF0FF317868FFF7FBFDF860F9687B
:104770007868FFF709FEFB6818461037BD4680BD14
:1047800080B582B000AF7860396039687868FFF72B
:10479000D9FD00BF0837BD4680BD80B582B000AFEF
:1047A00078600B46FB704FF4AC717868FFF783FDBF
:1047B0000346002B0DD1FB7883F00103DBB2002B05
:1047C00009D04FF490717868FFF775FD0346002B10
:1047D00001D0012300E0002303F00103DBB21846FF
:1047E0000837BD4680BD80B584B000AF78604FF417
:1047F000A6717868FFF75FFD0346002B3AD0786812
:10480000FFF7E8FD04217868FFF710FE0023FB7333
:104810006423BB604FF4A2717868FFF74CFD034638
:10482000002B07D14FF492717868FFF744FD0346DF
:10483000002B02D00123FB7308E00A20FDF7C6F825
:10484000BB68013BBB60BB68002BE3D14FF4A67192
:104850007868FFF71FFD4FF488717868FFF71AFD3D
:104860004FF4A2717868FFF715FD7868FFF7BFFD78
:10487000FB7B00E0012318461037BD4680BD80B5A4
:1048800086B000AF78600B46FB700023FB7378683E
:10489000FFF7A0FD07F10F03002219467868FFF724
:1048A000D6FD08217868FFF7C1FD0C217868FFF775
:1048B000BDFD0023FB750A233B6101217868FFF7EA
:1048C0006CFF0346002B02D00123FB7508E001209A
:1048D000FDF77CF83B69013B3B613B69002BECD168
:1048E000FB7D83F00103DBB2002B01D0002308E045
:1048F0004FF490717868FFF7CDFC7868FFF777FD8B
:10490000012318461837BD4680BD80B584B000AF7E
:10491000F860B9607A60FB707A68B968F868FFF788
:1049200096FD4FF49071F868FFF7B4FC4FF4AC714A
:10493000F868FFF7AFFC4FF4A871F868FFF7AAFC1E
:10494000F868FFF747FDFB78002B04D04FF4800197
:10495000F868FFF7F7FC0821F868FFF767FD00BF6C
:104960001037BD4680BD80B483B000AF78607B68EF
:10497000DB6C1B0B03F00103002B14BF012300238E
:10498000DBB218460C37BD4680BC704780B582B09C
:1049900000AF786039604FF4AC717868FFF78BFC3A
:1049A0000346002B0BD03868FFF7DDFF034683F08A
:1049B0000103DBB2002B02D07868FFF718FD00BFBF
:1049C0000837BD4680BD80B584B000AF78603960DF
:1049D0003B68DB6C03F00103002B14BF01230023B1
:1049E000BB730123FB7300BFBB7B19467868FFF7DD
:1049F000D4FE034683F00103DBB2002BF4D1FEF7B3
:104A000061F9BB7B83F00103DBB2002B1AD04FF4BA
:104A100090717868FFF74FFC0346002B0FD00C21F4
:104A20007868FFF703FD00BF01217868FFF7B5FE46
:104A3000034683F00103DBB2002BF5D10FE0002326
:104A4000FB730CE04FF4AC717868FFF734FC03465D
:104A500083F00103DBB2002B01D00023FB73FB7B4F
:104A6000002B03D039687868FFF790FFFEF73AF91A
:104A700000BF1037BD4680BD80B588B000AFF8607C
:104A8000B9601346FB71BB68DB6C03F00103002BBC
:104A900014BF01230023DBB21946F868FFF77DFE3F
:104AA000034683F00103DBB2002B0DD0BB68DB6C47
:104AB00043F004031A46BB68DA644FF48001F868D7
:104AC000FFF740FC00232FE0FB79002B1BD0BB68D5
:104AD000DA6ABB681B6CD21ABB68DB6B934228BFD7
:104AE00013467B61BB68986BBB689A6ABB681B6C9A
:104AF00013447A69194606F0C6F8BB689B6BFB61E4
:104B00007B69BB6105E0BB689B6AFB61BB68DB6AD4
:104B1000BB61BB684FF0FF325A640123BA69F9697F
:104B2000F868FFF7F2FE012318462037BD4680BD26
:104B300080B586B000AF78600B46FB7007F10803C4
:104B400000221A605A609A60DA60FB783B727B68D8
:104B50005B687A68116807F108021046984700BF41
:104B60001837BD4680BD80B586B000AF786039602B
:104B700007F1080300221A605A609A60DA60042381
:104B80003B723B68FB607B685B687A68116807F181
:104B900008021046984700BF1837BD4680BD80B553
:104BA00088B000AFF860B9607A6007F110030022A6
:104BB0001A605A609A60DA6001233B74BB687B61BB
:104BC0007B68BB61FB685B68FA68116807F11002DB
:104BD0001046984700BF2037BD4680BD80B483B0E3
:104BE00000AF78607B684C33D3E8EF1F21F47F017E
:104BF00021F47041C3E8E21F002AF5D100BF0C3751
:104C0000BD4680BC704780B582B000AF78604FF47D
:104C1000AC717868FFF74FFB034683F00103DBB20A
:104C2000002B07D14FF480017868FFF79AFB034609
:104C3000002B01D0012300E0002303F00103DBB2CD
:104C400018460837BD4680BD80B582B000AF786099
:104C5000FEF738F87868FFF7D6FF034683F00103C4
:104C6000DBB2002B02D07868FFF7C1FBFEF73AF801
:104C700000BF0837BD4680BD80B58CB000AFF8607E
:104C8000B9607A60FB70002387F82F30FB681B6ADD
:104C9000BB6297F82F3083F00103DBB2002B05D005
:104CA0007A68B968F868FFF77AFF49E0BB6A1B6861
:104CB000002B44D0BB6A1A68BB6A9B6A13447A68AB
:104CC000B968184605F0DFFFBB6A9A6A7B681A4428
:104CD000BB6A9A62BB6A5A68BB6A9B6A9A420CBFFB
:104CE0000123002387F8273097F82730002B02D1C3
:104CF000FB78002B24D0BB6A1B683B62BB6A9B6AB3
:104D0000FB61BB6A00229A62BA6ABB6A083393E805
:104D1000030082E80300BB6A00229A60BB6A00229B
:104D2000DA60BB6A5B68002B03D0BB6A012283F8A0
:104D30002D20FA69396AF868FFF731FF00E000BFFB
:104D40003037BD4680BD80B586B000AF7860396031
:104D50003B68DB69002B01D101236EE03B68DA6917
:104D60003B68DB689A424DD33B689B687B613B683C
:104D7000DB683B613B6800229A603B680022DA6096
:104D80003B689B693A691946786905F07CFF3B6886
:104D9000DA693B69D21A3B68DA613B6898693B681B
:104DA0009A693B69D1183B68DB691A4605F050FFE8
:104DB0003B685B68002B23D03B68DB6C03F400533B
:104DC000002B14BF01230023FB73FB7B002B09D0B6
:104DD0003B684C33D3E8EF1F41F48021C3E8E21F66
:104DE000002AF7D100233A6979693868FFF744FF50
:104DF000FB7B002B04D0002239687868FDF736FB76
:104E000000231AE03B6898683B6899693B68DB6956
:104E10001A4605F038FF3B68DA693B685A623B681E
:104E20000022DA613B684C33D3E8EF1F41F40021E4
:104E3000C3E8E21F002AF7D1012318461837BD4600
:104E400080BD80B582B000AF786039603B68DB6CB4
:104E500003F40043002B03D13B680022DA613AE0FF
:104E60004FF4A6717868FFF715FA3B689B69052235
:104E700019467868FFF721FB4FF488717868FFF7CF
:104E800009FA2C217868FFF7D1FA00BF4FF4887136
:104E90007868FFF710FA034683F00103DBB2002BBA
:104EA000F4D14FF488717868FFF7F4F94FF4A671E4
:104EB0007868FFF700FA0346002B04D07868FFF704
:104EC0000DFB034600E000233A68D3614FF4A6715E
:104ED0007868FFF7DFF90837BD4680BD80B582B03E
:104EE00000AF7860396000BF4FF4A2717868FFF7B7
:104EF000E2F9034683F00103DBB2002BF4D14FF457
:104F0000A6717868FFF7C6F94FF488717868FFF7E3
:104F1000C1F94FF4A2717868FFF7BCF93968786875
:104F2000FFF78FFF7868FFF78FFE3B6800229A60DB
:104F30003B6800221A613868FFF750FE00BF08374F
:104F4000BD4680BD80B489B000AF786039607B68B1
:104F50001B68FB610023FB763B685B6803F01F0363
:104F6000002B01D0012354E0FB691B681B0ADBB254
:104F70007B613B681B687A699A4201D8012348E04B
:104F8000FB695B683B61FB6900225A603B681B68F8
:104F9000DAB2FB699A603B685B6823F01F03FB6031
:104FA0003B689B7CDB0003F01803FA681343FB604B
:104FB0003B685B7C5B0003F00603FA681343FB600D
:104FC0003B681B7C03F00103FA681343FB60FB6939
:104FD000FA68DA603B689B68013B23F01F03BB6003
:104FE0003B68DB685B0003F00E03BA681343BB60E9
:104FF000BB6843F00103BB60FB69BA681A61FB69D7
:105000003A695A60BFF34F8F00BFBFF36F8F00BF85
:10501000FB7E18462437BD4680BC704780B487B0FD
:1050200000AF786039607B681B687B610023FB748C
:105030007B695B68FB607B6900225A603B68DAB27F
:105040007B699A607B690022DA607B6900221A61C1
:105050007B69FA685A60FB7C18461C37BD4680BCE9
:10506000704780B586B000AF78607B681B683B6195
:105070003B691B681B0ADBB2FB6000237B6106E017
:1050800079697868FFF7CAFF7B6901337B617A69C8
:10509000FB689A42F4D3002318461837BD4680BDFA
:1050A00080B483B000AF78607B681B6800BF0C37AA
:1050B000BD4680BC704780B483B000AF7860396073
:1050C0007A683B6813441B68002B14BF012300233C
:1050D000DBB218460C37BD4680BC704780B582B045
:1050E00000AF78600B467B807B887A68134400228F
:1050F0001A607B887A6813441846FFF7D1FF00BF17
:105100000837BD4680BD80B582B000AF78600B46E1
:105110007B807B8819467868FFF7CDFF03461846E9
:105120000837BD4680BD80B483B000AF7860396079
:105130007B683A68C3F8042300BF0C37BD4680BCC7
:10514000704780B485B000AF78600B46FB700023D9
:10515000FB73FB7B18461437BD4680BC704780B498
:1051600083B000AF78607B68DB0318460C37BD4620
:1051700080BC704780B483B000AF78607B68013337
:10518000DB03013B18460C37BD4680BC704780B43A
:1051900000AF00231846BD4680BC704780B400AF06
:1051A0001F231846BD4680BC704780B400AF4FF443
:1051B00000431846BD4680BC704780B483B000AF42
:1051C00078607B6803F57F43C0335B0318460C3778
:1051D000BD4680BC704780B483B000AF78607B6808
:1051E00003F57F43C1335B03013B18460C37BD46D3
:1051F00080BC704780B400AF40231846BD4680BCD9
:10520000704780B400AF5F231846BD4680BC70472E
:1052100080B400AF4FF400531846BD4680BC7047C1
:1052200080B582B000AF00237B6003F063FD78603F
:105230007B68002B02D045F2235300E00023184680
:105240000837BD4680BD80B582B000AF02F07EFC5D
:1052500078607B68002B01D07B680CE0FFF7E0FFF3
:1052600078607B68002B01D07B6804E0FEF726F9AC
:10527000FEF742F9002318460837BD4680BD80B4CA
:1052800000AF00231846BD4680BC704780B500AF14
:10529000FEF704FA72B600BF20BFFDE780B400AF8E
:1052A00000231846BD4680BC704780B400AF002381
:1052B0001846BD4680BC704780B400AF00BFBD46F5
:1052C00080BC704780B483B000AF78607B689B0976
:1052D00003F00103002B14BF01230023DBB21846A7
:1052E0000C37BD4680BC704780B500AFFEF70AFAA8
:1052F00080B588B000AF786039602623FB61232336
:10530000BB6101237B617B685B68082B03D13B6831
:105310005B68042B01D002233CE07B681B683B6187
:105320003B681B68FB60FB684FF0FF321A603B690B
:105330001B68002B03D03B695B68002B01D1022363
:1053400028E03B691B681946FB697422786902F002
:105350005CFBB860BB68002B01D002231AE03B69FC
:105360005B681946BB690422786902F04EFBB8609D
:10537000BB68002B01D002230CE03B691A683B6933
:105380005B6819461046FEF7C1F803461A46FB68EB
:105390001A60002318462037BD4680BD80B584B012
:1053A00000AFF860B9607A60FB68042B15D0FB6829
:1053B000042B18DCFB68002B03D0FB68012B06D004
:1053C00011E07968B868FEF7B3F903460CE0796834
:1053D000B868FEF765FA034606E07968B868FFF733
:1053E00087FF034600E0032318461037BD4680BD03
:1053F00080B483B000AF78607B681B6818460C37B8
:10540000BD4680BC704780B586B000AF7860EFF3D2
:105410001083FB60FB68012B0CBF01230023FB758D
:10542000FB7D83F00103DBB2002B01D072B600BF1D
:105430007B681846FFF7DCFF3861BFF34F8F00BF72
:10544000FB7D83F00103DBB2002B01D062B600BF0D
:105450003B6918461837BD4680BD000080B485B052
:1054600000AF786039600B23FB60FB685A1EFA605E
:105470001A463B6813440A221A70FB685A1EFA60E7
:105480001A463B6813440D221A700EE07B6803F045
:105490000F02FB6839680B4410498A5C1A70FB687C
:1054A000013BFB607B681B097B60FB68012BEDDC2B
:1054B000FB685A1EFA601A463B68134478221A7039
:1054C000FB685A1EFA601A463B68134430221A7071
:1054D00000BF1437BD4680BC704700BFDC7F0000B2
:1054E00080B582B000AF43F65C237B604FF0FF33A2
:1054F0003B601E4802F098F938603B68002B02D0F0
:105500006FF0FC032EE0FFF79EFE38603B68002B37
:1055100002D06FF0FC0325E026211548FEF70BFBB7
:10552000FFF7ADFE78607B68002B02D06FF0FC03C4
:1055300018E0FFF7B3FE0346002B08D0FFF7B5FED7
:1055400078607B68002B02D06FF0FC030AE0FFF765
:10555000B3FE02F063F935210648FEF7ECFA01F0DC
:10556000FFFC002318460837BD4680BDB029002047
:10557000EC7F00001480000080B582B000AF4FF0D7
:10558000FF337B600A4B184601F06DFEFFF7A8FF62
:1055900078607B68002B01D001F02EFE00F0ECFF5C
:1055A00000F0E2F9002318460837BD4680BD00BF71
:1055B0000004002080B485B000AF78600023FB6059
:1055C000134B5B68BB601AE0BB681B685B687A685A
:1055D0009A420FD1FB68002B0AD0BB689A68FB681F
:1055E0009A600B4B5A68BB689A60094ABB68536063
:1055F000BB6808E0BB68FB60FB689B68BB60BB687E
:10560000002BE1D1002318461437BD4680BC7047FB
:10561000B429002080B582B000AF786039607B6823
:10562000002B0DD108211A48FEF785FA1D211948D3
:10563000FEF781FA80220221174801F0E3FDFEE720
:105640007B681B689B6803F48063002B03D0B3F571
:10565000806F09D011E07B681B68DB683A689A426A
:105660000ED96FF0FA030FE07B681B68DB683A68BD
:105670009A4207D06FF0FA0306E06FF0FA0303E0F6
:1056800000BF00E000BF002318460837BD4680BDBC
:105690004C800000588000005480000080B588B025
:1056A00000AFF860B9601346FB710023BB61BB68B3
:1056B000002B0DD108212548FEF73DFA1C21244876
:1056C000FEF739FA9B220221224801F09BFDFEE7FA
:1056D000FB79002B09D0BB681B689B6803F48073BF
:1056E000002B2DD16FF0FC032BE01B4B1B68BB6123
:1056F000BB69002B01D101F07FFDBB691B6838330A
:105700007B610023FB610AE0FB699B007A6913441B
:105710001B68FA689A4209D0FB690133FB61BB69D7
:105720001B689A69FB699A42EED800E000BFBB692A
:105730001B689A69FB699A4202D16FF0FC0300E092
:10574000002318462037BD4680BD00BF4C800000B6
:105750007880000054800000442A002080B58CB07E
:1057600000AFF860B9607A6000237B6100F0E0F878
:10577000034687F82F30FB68002B0DD108213348F2
:10578000FEF7D9F918213248FEF7D5F9C0220221D7
:10579000304801F037FDFEE7BB68002B02D16FF007
:1057A00080034FE0BB6803F08043002B48D0BB6808
:1057B00003F01F03BB62284ABB6A52F823307B62A6
:1057C0007B6A002B02D16FF080033BE07B6A1B6891
:1057D0005B683B6297F82F301A46796A386AFFF7A0
:1057E0005DFF0346002B02D06FF081032AE0BB6807
:1057F0001B12DBB2FB61F969786AFFF70BFF034606
:10580000002B02D06FF080031CE001F03BFD03464B
:105810007B6101F0E8FFB8617B69184601F03FFD4C
:10582000BB69002B02D16FF082030BE07A68796AC2
:10583000B86900F013F8FB68BA691A60002301E048
:105840006FF0800318463037BD4680BD4C800000A5
:105850009480000054800000BC29002080B584B0F2
:1058600000AFF860B9607A60FB68002B0ED10821A8
:105870001E48FEF760F919211D48FEF75CF940F259
:105880002D1202211B4801F0BDFCFEE7BB68002B76
:105890000ED108211548FEF74EF919211448FEF7DC
:1058A0004AF94FF497720221124801F0ABFCFEE76F
:1058B000FB680C3330220021184605F02AFAFB68F9
:1058C000BA689A600C4B1A68FB685A60FB687A6881
:1058D0005A61F86801F062FF0246FB681A61FB68D2
:1058E00000221A6000BF1037BD4680BD4C8000000A
:1058F000AC80000054800000442A002080B483B0B3
:1059000000AF0A4B1B687B607B68002B07D07B686D
:105910001B68002B03D07B681B685B6800E00023DA
:1059200018460C37BD4680BC704700BF442A002093
:1059300080B582B000AF0B4B1B687B607B68002B8F
:1059400001D101F059FC7B681B689B6803F440633C
:10595000002B14BF01230023DBB218460837BD46D5
:1059600080BD00BF442A002080B584B000AF4FF056
:10597000FF33FB6001F031FF194B00225A60194BD5
:1059800000225A6000F082FD154800F0BFF8B860B0
:10599000BB68002B1CD08023134A1249B86801F061
:1059A000C8FC7860B86801F068FDBB681A68BB681D
:1059B00004331946104600F02BFEF860FB68002BFC
:1059C00001D001F019FC7968B86800F097FCDBE7BA
:1059D00000BF00F0C1FC034618461037BD4680BD2D
:1059E0003C2A0020B4290020BC29002080B584B0C6
:1059F00000AF78600023FB6035E07A68FB680A330B
:105A00009B0013445B68002B29D07B68DA6FFB682E
:105A1000DB0013441A687968FB6816339B000B445B
:105A20005B689A420ED008211348FEF784F81921CA
:105A30001248FEF780F84FF4D1720221104801F0AD
:105A4000E1FBFEE77B68DA6FFB68DB001A447968EC
:105A5000FB681A339B000B445B68536000E000BF97
:105A6000FB680133FB60FB68032BC6D900BF00BF96
:105A70001037BD4680BD00BF4C800000C8800000CC
:105A80005480000080B582B000AF0A4B1B687B6079
:105A9000084B1B682033074A1360064B1A68064BF5
:105AA0001B689A4201D901F0A7FB7B6818460837AA
:105AB000BD4680BDAC200020B020002080B584B061
:105AC00000AF78600F4B1B68FB607B68002B01D137
:105AD000002313E07A6813465B0013449B001A46C8
